:020000040800F2
:100000000006002049010008C11E00084F1E00081C
:10001000BD1E000855030008FD2D0008000000006B
:10002000000000000000000000000000012A00089D
:100030005903000800000000C31E0008592A0008E8
:100040006301000863010008630100086301000800
:1000500063010008630100085B03000863010008F6
:1000600063010008630100086301000863010008E0
:1000700063010008630100086301000863010008D0
:1000800063010008630100086301000863010008C0
:1000900063010008630100086301000863010008B0
:1000A00063010008630100086301000863010008A0
:1000B0006301000863010008630100086301000890
:1000C0006301000863010008630100086301000880
:1000D00063010008BD2D00086301000863010008EA
:1000E0006301000863010008630100086301000860
:1000F0006301000863010008630100086301000850
:10010000630100086301000863010008630100083F
:10011000630100086301000863010008630100082F
:10012000630100086301000863010008630100081F
:10013000DFF810D000F05CF8004800476133000899
:10014000AFF30080000600200648804706480047BD
:10015000FEE7FEE7FEE7FEE7FEE7FEE7FEE7FEE777
:10016000FEE7FEE7612A000831010008202A04DBCF
:10017000203A21FA02F00021704721FA02F3D04020
:10018000C2F1200291400843194670472DE9F05F03
:100190000546002092469B468846064681464024F6
:1001A0001BE02846414647462246FFF7DFFF5346FD
:1001B0005A46C01A914110D311461846224600F003
:1001C00029F82D1A67EB01084F462246012000212D
:1001D00000F020F817EB00094E41201EA4F10104A5
:1001E000DFDC484631462A464346BDE8F09F000022
:1001F000064C074D06E0E06840F0010394E8070074
:1002000098471034AC42F6D3FFF796FF1C3600082F
:100210003C360008202A04DB203A00FA02F10020D4
:1002200070479140C2F1200320FA03F31943904034
:10023000704770B5044600252068806800F0010012
:10024000F0B12068806820F001002168886000F02B
:100250009BFC05460EE000F097FC401B022809D9E4
:10026000A06A40F01000A062E06A40F00100E06285
:10027000012070BD2068806800F001000028EAD1EC
:100280000020F6E738B504460025002000902068DD
:10029000806800F0010080BB2068806840F00100A9
:1002A00021688860164800681649B0FBF1F000909C
:1002B00002E00098401E009000980028F9D100F05C
:1002C00063FC054613E000F05FFC401B02280ED9DA
:1002D000A06A40F01000A062E06A40F00100E06215
:1002E00000BF002084F8240000BF012038BD206832
:1002F000806800F001000028E5D00020F6E700004B
:100300000000002040420F0000B587B0022001909D
:100310008003039001A800F081FD0C480C4908609F
:100320000020486000210A488160017301210161B9
:100330000021017581614FF46021C16100F094F8E2
:10034000034800F00FF807B000BD00000024014092
:100350002801002000BFFEE7704710B5012000F023
:1003600057FA10BDF8B5044600260020009000BFE3
:1003700094F82400012801D10220F8BD012084F85E
:10038000240000BF2046FFF754FF0646002E62D12E
:10039000A06A20F4885040F00200A062022000F021
:1003A000A3FC30490968B1FBF0F04000009002E086
:1003B0000098401E009000980028F9D12046FFF7D1
:1003C00061FF2068806840F008002168886000F0C4
:1003D000DBFB054611E000F0D7FB401B0A280CD9D7
:1003E000A06A20F0020040F01000A06200BF0020D0
:1003F00084F8240000BF0120BFE72068806800F077
:1004000008000028E7D12068806840F004002168D7
:10041000886000F0B9FB054611E000F0B5FB401B19
:100420000A280CD9A06A20F0020040F01000A06257
:1004300000BF002084F8240000BF01209DE7206851
:10044000806800F004000028E7D1A06A20F00200D4
:1004500040F00100A06200BF002084F8240000BF2B
:1004600030468AE7000000202DE9F04104460027CD
:1004700000250026A84614B90120BDE8F081A06837
:1004800010B1207D00B100BFA06A30B90020E06249
:1004900084F82400204600F097F82046FFF7C9FEB4
:1004A0000746A06A00F01000002873D1002F7ED10B
:1004B000A06A20F4885040F00200A0623F4AD4E9CC
:1004C0000001904208D1E069B0F5402F02D14FF40D
:1004D000002002E0E06900E0E0690143207B41EA9E
:1004E00040000643A068B0F5807F02D0A0680128D4
:1004F00002D14FF4807000E000200543207D0128E8
:1005000011D1207B38B9A069401E4FF4006141EA47
:100510004030054307E0A06A40F02000A062E06A96
:1005200040F00100E0622068406820F46940284300
:10053000216848602068806821490840304321686C
:100540008860A068B0F5807F02D0A068012802D141
:100550004FF4807000E00020B0F5807F03D1208A46
:10056000401E4FEA00582068C06A20F4700040EA3C
:1005700008002168C8622068806812490840B042BB
:1005800009D10020E062A06A20F0020040F00100E2
:10059000A06211E00BE0A06A20F0020040F0100021
:1005A000A062E06A40F00100E062012704E0A06A76
:1005B00040F01000A062012738465EE7003C014091
:1005C000FDF7E1FFFE0E1FFF10B586B0044600BF29
:1005D0000D48806940F004000B4988610846806935
:1005E00000F00400019000BF00BF03200390022030
:1005F0000290002004900320059002A9034800F017
:1006000015F906B010BD00000010024000080140BE
:1006100070B50446002594F82100022803D0042078
:10062000A0630125C1E02068006820F00E00216869
:1006300008602068006820F00100216808605C49BB
:100640002068884252D95A4978392068884201D1B5
:10065000012047E0564964392068884201D11020C2
:1006600040E0534950392068884201D1801539E073
:100670004F493C392068884201D1801432E04C490E
:1006800028392068884202D14FF480302AE0484956
:1006900014392068884202D14FF4801022E0444986
:1006A0002068884201D140041CE042492068884209
:1006B00001D1012016E03F4914312068884201D160
:1006C00010200FE03B4928312068884201D1801575
:1006D00008E038493C312068884201D1801401E0AB
:1006E0004FF480303349091F086051E030497839B0
:1006F0002068884201D1012047E02D4964392068F3
:10070000884201D1102040E02949503920688842B0
:1007100001D1801539E026493C392068884201D151
:10072000801432E0224928392068884202D14FF4EF
:1007300080302AE01E4914392068884202D14FF4E3
:10074000801022E01A492068884201D140041CE050
:1007500018492068884201D1012016E0154914315A
:100760002068884201D110200FE01249283120680A
:10077000884201D1801508E00E493C31206888424A
:1007800001D1801401E04FF480300949803948607C
:10079000012084F8210000BF002084F8200000BF61
:1007A000606B10B12046616B8847284670BD000021
:1007B000800002400804024070B5044600F0E4F9ED
:1007C00006462546681C10B104480078054400BF61
:1007D00000F0DAF9801BA842FAD370BD0C000020AB
:1007E00010B5044602F094FE0121074800F0BEF95E
:1007F000012807D10548006808B9012000E0002061
:100800000249086010BD00000008014094812142A7
:1008100010B5044604480068204020B10248046036
:100820002046FFF7DDFF10BD140401402DE9F84715
:10083000024600239C467BE14FF0010808FA03F4CE
:10084000D1F8008008EA0400A0427DD1DFF8F4A2CC
:10085000D1F80480A8EB0A09D0453AD014DCB8F1ED
:10086000030F50D009DCB8F1000F31D0B8F1010FFF
:100870001CD0B8F1020F49D120E0B8F1110F18D007
:10088000B8F1120F42D11EE0B9F5881F25D006DC61
:10089000B9F5803F20D0B9F5801F37D11AE0B9F5FE
:1008A000001F18D0B9F5041F30D117E0D1F80CC0E3
:1008B0002DE0D1F80C8008F1040C28E0D1F80C8070
:1008C00008F1080C23E0D1F80C8008F10C0C1EE0B4
:1008D00000BF00BF00BF00BF00BF00BFD1F808804D
:1008E000B8F1000F02D14FF0040C0BE0D1F80880F2
:1008F000B8F1010F03D14FF0080C146102E04FF082
:10090000080C546103E04FF0000C00E000BF00BF92
:10091000FF2801D8904601E002F104084646FF286E
:1009200002D84FEA830803E0A3F108084FEA8808D9
:100930004746D6F800804FF00F0909FA07F928EA70
:1009400009080CFA07F900E07AE048EA0908C6F855
:100950000080D1F8048008F08058B8F1805F6FD132
:1009600000BFDFF8E481D8F8188048F00108DFF80C
:10097000D891C9F81880C846D8F8188008F001083E
:10098000CDF8008000BF00BF4FEAB9384FEA9309A5
:1009900058F829504FEA83784FEA18794FF00F083A
:1009A00008FA09F825EA0805DFF8A081424502D1D6
:1009B0004FF0000824E0DFF89881424502D14FF063
:1009C00001081DE0DFF88C81424502D14FF002089A
:1009D00016E0DFF88481424502D14FF003080FE0B2
:1009E000DFF87881424502D14FF0040808E0DFF8D3
:1009F0007081424502D14FF0050801E04FF0060832
:100A00004FEA83794FEA197908FA09F848EA0505A7
:100A1000DFF850814FEA930948F82950D1F8048053
:100A200008F48038B8F5803F0BD1DFF83C81D8F866
:100A3000008048EA0008DFF83091C9F800800AE039
:100A400075E0DFF82481D8F8008028EA0008DFF894
:100A50001891C9F80080D1F8048008F40038B8F57E
:100A6000003F0ED1DFF8008108F10408D8F80080BB
:100A700048EA0008DFF8F09009F10409C9F800809D
:100A80000DE0DFF8E48008F10408D8F8008028EAD7
:100A90000008DFF8D49009F10409C9F80080D1F802
:100AA000048008F48018B8F5801F0ED1DFF8B880F4
:100AB00008F10808D8F8008048EA0008DFF8A89094
:100AC00009F10809C9F800800DE0DFF89C8008F101
:100AD0000808D8F8008028EA0008DFF88C9009F1AF
:100AE0000809C9F80080D1F8048008F40018B8F5A6
:100AF000001F0ED1DFF8708008F10C08D8F80080D4
:100B000048EA0008DFF8609009F10C09C9F8008094
:100B10000DE0DFF8548008F10C08D8F8008028EACE
:100B20000008DFF8449009F10C09C9F800805B1C4B
:100B3000D1F8008028FA03F8B8F1000F7FF47CAEFA
:100B4000BDE8F887000011100010024000080140C5
:100B5000000C014000100140001401400018014049
:100B6000001C014008000140000401400246936857
:100B70000B400BB1012000E0002070470AB1016179
:100B800001E00B04036170470148006870470000F2
:100B9000040000200348006803490978084401491B
:100BA00008607047040000200C00002010B50848C1
:100BB000006840F0100006490860052000F080F849
:100BC0000F2000F007F800F02BF8002010BD000007
:100BD0000020024070B504460E4800784FF47A7148
:100BE000B1FBF0F00C490968B1FBF0F5284600F0C4
:100BF00057FF08B1012070BD102C07D200222146FA
:100C0000501E00F01EF80548046001E00120F2E7E4
:100C10000020F0E70C000020000000200800002069
:100C2000704701460846002809DB00F01F03012237
:100C30009A4043099B0003F1E023C3F8002100BF61
:100C400070472DE9F05F80460D461646002702F0FA
:100C5000E7F8074639462A46334601F00700C0F157
:100C6000070ABAF1040F02D94FF0040A01E0C0F1FB
:100C7000070AD14600F1040ABAF1070F02D24FF079
:100C8000000A01E0A0F1030AD4464FF0010A0AFA73
:100C900009FAAAF1010A0AEA020A0AFA0CFA4FF062
:100CA000010B0BFA0CFBABF1010B0BEA030B4AEA4D
:100CB0000B042146404602F0BBF8BDE8F09F00005F
:100CC00000BF00F00702064B19684FF6FF031940FA
:100CD000044B0B4343EA0221014B196000BF7047EC
:100CE0000CED00E00000FA052DE9F04385B0064662
:100CF00042A30FCB01AC0FC444A0006800904FF09A
:100D00000008002500270024A146042E36D004DC6C
:100D1000012E3BD0022E6BD15FE0082E32D0102E78
:100D200066D13B484468006800F0807000B301A8B9
:100D3000C4F38341475C04F4803070B134484068A8
:100D4000C0F340401DF8008004F4803040B13148C9
:100D5000B0FBF8F000FB07F502E02F4807FB00F5B9
:100D60002B48406800F48000B0F5800F01D1A946FF
:100D700003E068000321B0FBF1F93AE000F0D0F99C
:100D8000814636E000F0CCF9814632E02048046A22
:100D900004F44070B0F5807F05D104F0020010B17A
:100DA0004FF4004918E004F44070B0F5007F07D11B
:100DB0001748406A00F0020010B149F640490BE0C4
:100DC00004F44070B0F5407F06D11148006800F48B
:100DD000003008B14FF224490BE000F091F90C49C2
:100DE0004968C1F38131491C4900B0FBF1F900E0C9
:100DF00000BF00BF484605B0BDE8F083020304050C
:100E0000060708090A0B0C0D0E0F10100102000056
:100E10000010024000127A0000093D00F8B50446B7
:100E2000002700260025207800F00100002869D066
:100E30004248C06900F0805070B900BF3F48C069A7
:100E400040F080503D49C8610846C06900F08050BC
:100E5000009000BF00BF01273948006800F480708F
:100E6000B0B93748006840F4807035490860FFF732
:100E70008BFE064606E0FFF787FE801B642801D93B
:100E80000320F8BD2E48006800F480700028F2D0DE
:100E90002A48006A00F440752DB3A08800F4407021
:100EA000A84220D02548006A20F440750120254939
:100EB0000860002008602148056205F0010090B13B
:100EC000FFF762FE064608E0FFF75EFE801B41F278
:100ED0008831884201D90320D3E71848006A00F01E
:100EE00002000028F0D01548006A20F440706168C4
:100EF000084312490862012F04D10846C06920F056
:100F00008050C861207800F00200022807D10B4809
:100F1000406820F44040A1680843084948602078B0
:100F200000F01000102807D10448406820F4800029
:100F300061690843014948600020A2E700100240AF
:100F4000007000404004424270B504460D460CB9A2
:100F5000012070BD5A48006800F00700A8420ED278
:100F60005748006820F007002843554908600846A4
:100F7000006800F00700A84201D00120E9E72078CE
:100F800000F0020002281DD1207800F0040004289F
:100F900005D14C48406840F4E0604A4948602078F8
:100FA00000F00800082805D14648406840F4605029
:100FB000444948604348406820F0F000A168084375
:100FC00040494860207800F0010078B3606801284B
:100FD00006D13C48006800F4003090B90120B8E721
:100FE0006068022806D13748006800F0007040B9F8
:100FF0000120AEE73348006800F0020008B9012084
:10100000A7E73048406820F00300616808432D4995
:101010004860FFF7B9FD064609E0FFF7B5FD801B04
:1010200041F28831884202D9032092E707E025483F
:10103000406800F00C006168B0EB810FEDD12048F2
:10104000006800F00700A8420ED91D48006820F093
:10105000070028431A4908600846006800F00700A6
:10106000A84201D0012074E7207800F00400042891
:1010700007D11448406820F4E060E1680843114952
:101080004860207800F00800082808D10D48406822
:1010900020F46050216940EAC1000A49486000F02C
:1010A0003FF808494968C1F30311074A515CC84039
:1010B0000649086006480068FFF78CFD002048E7F5
:1010C000002002400010024004360008000000200A
:1010D0000800002001480068704700000000002060
:1010E00000B5FFF7F7FF04494968C1F30221034A3D
:1010F000515CC84000BD00000010024014360008DA
:1011000000B5FFF7E7FF04494968C1F3C221034A6C
:10111000515CC84000BD00000010024014360008B9
:10112000F0B585B00FF26C0C9CE8E01001A8A0E8C7
:10113000E0101CA52D68009500210022002300244A
:101140000020194D696801F00C05F5B1042D02D09D
:10115000082D19D101E0154819E001ADC1F383460E
:10116000AC5D01F4803555B10F4D6D68C5F3404558
:101170001DF805200D4D6543B5FBF2F302E00C4D63
:1011800004FB05F3184602E000BF084800BF00BF9B
:1011900005B0F0BD02030405060708090A0B0C0D93
:1011A0000E0F1010010200000010024000127A0021
:1011B00000093D00F8B504460CB90120F8BD2078BF
:1011C00000F00100002878D0F848406800F00C00DA
:1011D00004280CD0F548406800F00C00082811D114
:1011E000F248406800F48030B0F5803F0AD1EF4803
:1011F000006800F4003000285FD0606800285CD1EF
:101200000120DBE700BF6068B0F5803F06D1E7480A
:10121000006840F48030E549086028E0606858B90B
:10122000E248006820F48030E04908600846006821
:1012300020F4802008601AE06068B0F5A02F0BD180
:10124000DA48006840F48020D84908600846006801
:1012500040F4803008600AE0D448006820F4803010
:10126000D24908600846006820F48020086000BF6A
:10127000606888B1FFF788FC054606E0FFF784FC4C
:10128000401B642801D9032098E7C848006800F48F
:1012900000300028F2D010E0FFF776FC054606E0AB
:1012A000FFF772FC401B642801D9032086E7BF4882
:1012B000006800F400300028F2D1207800F002002D
:1012C000022857D1B948406800F00C0050B1B74827
:1012D000406800F00C00082818D1B448406800F4B9
:1012E000803098B9B148006800F0020020B1206950
:1012F000012801D0012061E7AC48006820F0F80027
:10130000616940EAC100A949086033E02069E8B199
:101310000120A7490860FFF737FC054606E0FFF704
:1013200033FC401B022801D9032047E79F4800688F
:1013300000F002000028F2D09C48006820F0F8007D
:10134000616940EAC1009949086013E000209849AA
:101350000860FFF719FC054606E0FFF715FC401B87
:10136000022801D9032029E79048006800F0020014
:101370000028F2D1207800F0080008282DD1A069BB
:10138000B8B101208B490860FFF7FEFB054606E077
:10139000FFF7FAFB401B022801D903200EE7834820
:1013A000406A00F002000028F2D0012000F08AFD1F
:1013B00013E000207F490860FFF7E6FB054606E0E2
:1013C000FFF7E2FB401B022801D90320F6E677482D
:1013D000406A00F002000028F2D1207800F00400FA
:1013E000042873D100277148C06900F0805070B99B
:1013F00000BF6E48C06940F080506C49C861084623
:10140000C06900F08050009000BF00BF01276A480B
:10141000006800F48070B0B96748006840F48070DC
:1014200065490860FFF7B0FB054606E0FFF7ACFB37
:10143000401B642801D90320C0E65F48006800F41F
:1014400080700028F2D000BFE068012806D157481C
:10145000006A40F001005549086227E0E06858B989
:101460005248006A20F00100504908620846006AAC
:1014700020F00400086219E0E06805280BD14B4811
:10148000006A40F00400494908620846006A40F0DA
:10149000010008620AE04548006A20F00100434963
:1014A00008620846006A20F00400086200BFE06895
:1014B000A0B1FFF769FB054609E0FFF765FB401B9C
:1014C00041F28831884202D9032077E622E037488A
:1014D000006A00F002000028EFD012E0FFF754FB92
:1014E000054608E0FFF750FB401B41F28831884277
:1014F00001D9032062E62D48006A00F002000028AE
:10150000F0D1012F05D12948C06920F0805027492A
:10151000C86100BFE069C8B32448406800F00C000F
:10152000082860D0E069022848D1002020490866D8
:10153000FFF72AFB054606E0FFF726FB401B0228C3
:1015400001D903203AE61948006800F0007000282D
:10155000F2D1206AB0F5803F07D11448406820F4EA
:101560000030A168084311494860D4E908010843E4
:101570000E49496821F4741108430C494860012060
:101580000B490866FFF700FB054607E03DE0FFF763
:10159000FBFA401B022801D903200FE6034800682C
:1015A00000F000700028F2D02FE000000010024090
:1015B0000000424280044242007000400020144972
:1015C0000866FFF7E1FA054606E0FFF7DDFA401B83
:1015D000022801D90320F1E50E48006800F00070F0
:1015E0000028F2D111E0E069012800D1E6E50948C0
:1015F000466806F48031206A814204D106F47011F5
:10160000606A814201D00120D8E50020D6E50000C3
:10161000000042420010024070B58AB004460D46F8
:10162000032084F83400606C032820D0B5F5805F77
:1016300004D1A06B40F08050A0631CE0B5F5006FB2
:1016400007D1204601F0A8F90646A06B3043A063FD
:1016500011E03DB9204601F06BF90646A06B30431E
:10166000A06308E0A06B40F00060A06303E0A06B03
:1016700040F08050A063A06B38B1104821688863A7
:10168000012084F834000AB070BD60680490A0683E
:101690000590E0680690079560690890A069099038
:1016A00007A807C88DE80700206804A90EC900F044
:1016B00042FC012084F834000020E4E7FF054000EC
:1016C0000246506F000E0870506FC0F30F20488024
:1016D00092F874000306906F43EA10204860782067
:1016E000805C0872D06F000E4872D06F03028020B9
:1016F000805843EA1060C86080208058C0F30350CF
:10170000087480208058C0F30B2048828020805CC1
:10171000C0F346000875012048750020704700009E
:1017200010B50246506E800F0870506EC0F3836093
:101730004870506EC0F301608870506E000CC87025
:10174000B2F86400000A087192F864004871906E63
:10175000000DC880906EC0F3034008726820805A64
:10176000C0F3C03048726820805AC0F3803088725D
:101770006820805AC0F34030C8726820805AC0F395
:101780000030087300204873506C002836D1682060
:10179000805A8005030DD06E43EA90700861D06EC8
:1017A000C0F3C2600875D06EC0F302604875D06E99
:1017B000C0F342508875D06EC0F38240C875D06EB9
:1017C000C0F3C23008760869401C50650B7E506D2E
:1017D00003F007039B1C01249C4060435065087A7A
:1017E00000F00F03012098409065D2E915035B0AD1
:1017F0005843D0654FF40073136621E0506C012804
:1018000013D16820805C8006830AD06E43EA1040C2
:1018100008610869401C83025365536DD3654FF41A
:1018200000739365936D13660AE02E4813689863FE
:10183000906B40F080509063012082F8340010BD1E
:101840006C20805AC0F3803001F8190F6C20805A48
:10185000C0F3C61048706C20805C00F07F00887078
:10186000106FC00FC870106FC0F341700871106F17
:10187000C0F382604871106FC0F383508871106F9D
:10188000C0F34050C87100200872106FC0F30040D0
:1018900048727020805AC0F3C03088727020805A1D
:1018A000C0F38030C8727020805AC0F34030087393
:1018B0007020805AC0F3003048737020805AC0F303
:1018C000812088737020805AC0F30120C873702073
:1018D000805CC0F346000874012048741939002068
:1018E000ADE70000FF0540000246506C0860906CB8
:1018F0004860D06C8860106DC860506D0861906D54
:101900004861D06D8861106EC8610020704710B5C5
:1019100004460CB9012010BD94F8340020B9002011
:101920002077204600F054F8032084F83400204645
:1019300000F00CF808B10120EDE70020A06320635F
:10194000012084F834000020E5E7000070B58AB07B
:101950000446002004900590069007900890762099
:10196000099007A807C88DE80700206804A90EC9D8
:1019700000F0E1FA064616B101200AB070BD002061
:1019800012490860206800F0F0FA01200F49A039E0
:10199000C1F8A000204600F065FF05463DB10120DA
:1019A00084F83400A06B2843A0630120E5E72046BB
:1019B00000F0D6FE05463DB1012084F83400A06B4E
:1019C0002843A0630120D8E70020D6E7A0003042DA
:1019D00010B586B0044600BF2448406940F48060DA
:1019E000224948610846406900F48060019000BFC8
:1019F00000BF00BF0846806940F0100088610846BB
:101A0000806900F01000019000BF00BF00BF0846D1
:101A1000806940F0200088610846806900F020005D
:101A2000019000BF00BF00BF0846406940F00200BF
:101A300048610846406900F00200019000BF00BF05
:101A4000022003904FF4F8500290012004900320EC
:101A5000059002A90648FEF7E9FE0420029002A9BB
:101A60000448FEF7E3FE06B010BD0000001002407F
:101A70000010014000140140042808D14FF0E0217B
:101A8000096941F004014FF0E022116107E04FF0D5
:101A9000E021096921F004014FF0E0221161704753
:101AA00070B504462546681EB0F1807F01D3012041
:101AB0000FE0681E4FF0E02148610F214FF0FF302A
:101AC00001F0B6F900204FF0E0218861072008619D
:101AD000002070BD704701460022002391F8392094
:101AE00091F83A3042EA0300704700002DE9F047D0
:101AF0000446206805682068C668206847694FF07A
:101B00000008C14605F00F08B8F1000F0AD105F032
:101B1000200038B106F0200020B1204600F0F6FF8A
:101B2000BDE8F087B8F1000F6DD007F0010018B9DB
:101B300006F49070002866D005F0010030B106F47C
:101B4000807018B1E06B40F00100E06305F0040024
:101B500030B107F0010018B1E06B40F00200E06323
:101B600005F0020030B107F0010018B1E06B40F061
:101B70000400E06305F0080030B107F0010018B17F
:101B8000E06B40F00800E063E06B68B305F0200014
:101B900028B106F0200010B1204600F0B7FF206801
:101BA0004069C0F38019E06B00F0080010B9B9F18A
:101BB000000F22D0204600F089FF2068406900F025
:101BC0004000B0B12068406920F0400021684861C1
:101BD000606B50B11748616B4863606BFEF718FD8E
:101BE00010B1606B416B88470CE02046FFF772FF35
:101BF00008E02046FFF76EFF04E02046FFF76AFF8B
:101C00000020E0638CE705F0800030B106F0800032
:101C100018B1204601F09EF882E705F0400030B18F
:101C200006F0400018B1204600F060FF78E700BFE2
:101C300076E70000B92A000810B504460CB9012067
:101C400010BDA06900B100E000BF94F8390028B9C8
:101C5000002084F83800204600F028F8242084F87A
:101C600039002068C06820F400502168C860204610
:101C700000F0A0FF2068006920F49040216808610E
:101C80002068406920F02A00216848612068C06807
:101C900040F400502168C8600020E063202084F8F0
:101CA000390084F83A000020CAE7000010B586B079
:101CB000044625492068884244D100BF23488069F2
:101CC00040F00400214988610846806900F0040062
:101CD000019000BF00BF00BF0846806940F480400B
:101CE00088610846806900F48040019000BF00BF11
:101CF00000BF0846806940F001008861084680699D
:101D000000F00100019000BF00BF481502900220C2
:101D10000390012004900320059002A90C48FEF7CF
:101D200085FD4FF4806002900020039002A90848CE
:101D3000FEF77CFD2520FEF774FF032211462520C7
:101D4000FEF77FFF06B010BD0038014000100240D2
:101D50000008014010B5034693F83A0020282FD11F
:101D600001B10AB9012010BD00BF93F83800012865
:101D700001D10220F7E7012083F8380000BF996203
:101D80009A85DA850020D863222083F83A0000BFC4
:101D9000002083F8380000BF1868C06840F48070E5
:101DA0001C68E0601868406940F001001C686061D0
:101DB0001868C06840F020001C68E0600020D2E78E
:101DC0000220D0E71D4A0168914236D11C4909889A
:101DD00001F4004189BB1A49098801F4804171B1BD
:101DE000184909780A2903D00021154A118024E0F6
:101DF0001349098841F40041114A11801DE011493D
:101E000009780D2906D10E49098841F480410C4A10
:101E1000118012E00B490978094A1288C2F30D02B9
:101E2000094B995406490988491C054A11801146F5
:101E30000988C72901DD0021118070470038014061
:101E4000180000201A00002020000020704700BF6A
:101E5000FEE7000000B585B000BF1648806940F07D
:101E60000800144988610846806900F00800009065
:101E700000BF00BF00BF0846806940F04000886195
:101E80000846806900F04000009000BF00BF0120BC
:101E9000029020200190012003900320049001A9CA
:101EA0000548FEF7C3FC012220210348FEF766FE29
:101EB00005B000BD00100240000C014000BFFEE76D
:101EC0007047704708B508490968C9084FF47A7225
:101ED000B1FBF2F14143009100BF00BF00994A1EDF
:101EE00000920029F9D108BD0000002010B502467B
:101EF00000230868506248689062D1E902042043D8
:101F00000C6920434C6920430343D06A20F0F7005A
:101F10001843D062002010BD01460869C0B2704766
:101F20000146086800F003007047024602F1140001
:101F30004318186870470FB410B504460021DDE956
:101F400003021043059A1043069A1043079A104360
:101F5000089A10430143606847F6FF6290430843C4
:101F60006060002010BC5DF814FB10B5044603202F
:101F700020600220FEF720FC002010BD0146D1F8B1
:101F80008000704710B50246002308689060D1E9D0
:101F900001042043CC6820430C6920430343D068EC
:101FA0006FF30B001843D060002010BD70B586B0F1
:101FB00005460C46019437200290402003900020F3
:101FC00004904FF48060059001A92846FFF7DAFFDE
:101FD00041F288323721284600F032F90646304671
:101FE00006B070BD70B586B005460C460B48204360
:101FF00001902920029040200390002004904FF48B
:102000008060059001A92846FFF7BCFF284600F034
:102010001FFA0646304606B070BD00000000108072
:1020200070B586B005460C46019410200290402001
:102030000390002004904FF48060059001A9284689
:10204000FFF7A0FF41F288321021284600F0F8F88F
:102050000646304606B070BD70B586B005460C46E3
:1020600001940620029040200390002004904FF439
:102070008060059001A92846FFF784FF41F288326D
:102080000621284600F0DCF80646304606B070BD52
:1020900030B585B004460020009001900290039076
:1020A0004FF48060049069462046FFF76BFF20469E
:1020B00000F0A6F80546284605B030BD30B585B01D
:1020C00004464FF4D5700090082001904020029003
:1020D000002003904FF48060049069462046FFF78B
:1020E00051FF204600F03CFA0546284605B030BDB9
:1020F000F0B585B0064614461D46009407200190B1
:1021000040200290002003904FF4806004906946C4
:102110003046FFF737FF41F288320721304600F0A2
:102120008FF80746384605B0F0BD30B585B0044697
:102130000020009002200190C02002900020039017
:102140004FF48060049069462046FFF71BFF20464D
:1021500000F04CF90546284605B030BD70B586B094
:1021600005460C46019409200290C02003900020EF
:1021700004904FF48060059001A92846FFF702FF04
:10218000284600F033F90646304606B070BD30B53B
:1021900085B004460020009033200190402002903A
:1021A000002003904FF48060049069462046FFF7BA
:1021B000E9FE41F288323321204600F041F805461D
:1021C000284605B030BD70B586B005460C460020E7
:1021D00001900320029040200390002004904FF4CF
:1021E0008060059001A92846FFF7CCFE2246032116
:1021F000284600F059F90646304606B070BD00008A
:1022000001460E480068C0084FF47A73B0FBF3F043
:1022100041F2883300FB03F200BF101EA2F101025D
:1022200002D14FF000407047486B00F0800000285A
:10223000F3D0C52088630020F5E7000000000020EF
:102240002DE9F04305460F46904666480068C008F1
:102250004FF47A71B0FBF1F000FB08F900BFB9F15F
:102260000000A9F1010903D14FF00040BDE8F0835F
:102270006E6B06F045000028F1D006F400600028DF
:10228000EDD1686B00F0040010B10420A863EDE705
:10229000686B00F0010010B10120A863E6E7C520DB
:1022A000A8632846FFF738FEB84201D00120DDE7D9
:1022B00000212846FFF739FE04464B48204008B964
:1022C0000020D3E704F00040B0F1004F02D14FF0FE
:1022D0000070CBE704F08040B0F1804F01D1402086
:1022E000C4E704F00050B0F1005F01D18020BDE7E9
:1022F00004F08050B0F1805F02D14FF48070B5E7F8
:1023000004F00060B0F1006F02D14FF40070ADE74F
:1023100004F08060B0F1806F02D14FF48060A5E7D7
:1023200004F08070B0F1807F02D14FF400609DE72F
:1023300004F40000B0F5000F02D14FF4805095E78F
:1023400004F48000B0F5800F02D14FF400508DE707
:1023500004F40010B0F5001F02D14FF4804085E76F
:1023600004F48010B0F5801F02D14FF400407DE7E7
:1023700004F48020B0F5802F02D14FF4003075E7CF
:1023800004F40030B0F5003F02D14FF480206DE737
:1023900004F48030B0F5803F02D14FF4002065E7AF
:1023A00004F40040B0F5004F02D14FF480105DE717
:1023B00004F48040B0F5804F02D14FF4001055E78F
:1023C00004F40050B0F5005F02D14FF480004DE7F7
:1023D00004F00800082801D1000547E74FF48030D9
:1023E00044E700000000002008E0FFFD10B50146B2
:1023F00016480068C0084FF47A74B0FBF4F041F25C
:10240000883400FB04F300BF181EA3F1010302D1BE
:102410004FF0004010BD4A6B02F045000028F3D099
:1024200002F400600028EFD1486B00F0040010B106
:1024300004208863EEE7486B00F0010010B1012032
:102440008863E7E7C52088630020E3E700000020F9
:1024500010B5014613480068C0084FF47A74B0FB09
:10246000F4F041F2883400FB04F300BF181EA3F11E
:10247000010302D14FF0004010BD4A6B02F045004D
:102480000028F3D002F400600028EFD1486B00F080
:10249000040010B104208863EEE7C52088630020A3
:1024A000EAE70000000000202DE9F04304460F4653
:1024B00090462A480068C0084FF47A71B0FBF1F0EA
:1024C00041F2883100FB01F900BFB9F10000A9F128
:1024D000010903D14FF00040BDE8F083666B06F0C0
:1024E00045000028F1D006F400600028EDD1606BB3
:1024F00000F0040010B10420A063EDE7606B00F071
:10250000010010B10120A063E6E72046FFF704FDBB
:10251000B84201D00120DFE7C520A063002120469A
:10252000FFF703FD054605F4604020B9280CA8F824
:1025300000000020D0E705F48040B0F5804F02D1C4
:102540004FF40050C8E705F40040B0F5004F02D149
:102550004FF48050C0E74FF48030BDE7000000200A
:1025600010B5014618480068C0084FF47A74B0FBF3
:10257000F4F041F2883400FB04F300BF181EA3F10D
:10258000010302D14FF0004010BD4A6B02F045003C
:102590000028F3D002F400600028EFD1486B00F06F
:1025A000040010B104208863EEE7486B00F00100DE
:1025B00010B101208863E7E7486B00F0400008B1E4
:1025C000402088630020DFE70000002010B50F489E
:1025D0000F4908600020486000210D4881600421F7
:1025E00081610021C16001614161FFF790F90446FA
:1025F0000CB1012010BD4FF400610548FFF70CF845
:1026000004460CB10220F5E70020F3E7008001400A
:10261000580100202DE9F04389B004460F46FEF72B
:10262000B3FA81464FF000080020019002903E4628
:1026300008212068FFF7F4FC05461DB1284609B0C3
:10264000BDE8F0835022125B11042068FFF7AEFC56
:1026500005460DB12846F2E74FF0FF300390082001
:102660000490302005900220069000200790012061
:10267000089003A92068FFF739FC2068FFF787FD61
:1026800005460DB12846DAE715E02068406B00F4F6
:10269000001038B12068FFF771FC01A941F828004B
:1026A00008F10108FEF770FAA0EB0900401C10B910
:1026B0004FF00040C3E72068406B40F22A410840D9
:1026C0000028E2D02068406B00F0080018B1082014
:1026D00021688863B3E72068406B00F0020018B1FE
:1026E000022021688863AAE72068406B00F0200080
:1026F00018B1202021688863A1E740F23A50216890
:10270000886302980006029901F47F4140EA0120A3
:10271000029901F47F0140EA1120029940EA116018
:102720003060361D01980006019901F47F4140EAAE
:102730000120019901F47F0140EA1120019940EA4A
:102740001160306000207AE770B5044621460348E6
:10275000FFF7CAF80546284670BD00005801002062
:1027600030B58FB00446012003902068FFF7D8FBF6
:1027700018B94FF080600FB030BD606C03281BD0DB
:102780002068FFF7D2FC05460DB12846F3E700218B
:102790002068FFF7CAFB606704212068FFF7C5FBCC
:1027A000A06708212068FFF7C0FBE0670C212068C4
:1027B000FFF7BBFB80210851606C032807D003A9F9
:1027C0002068FFF700FD05460DB12846D3E7606C91
:1027D000032820D0BDF80C1021655022125B110493
:1027E0002068FFF7BBFC05460DB12846C3E7002172
:1027F0002068FFF79AFB606604212068FFF795FBCD
:10280000A06608212068FFF790FBE0660C21206895
:10281000FFF78BFB206704212068FFF786FB010D83
:10282000E16404A92046FEF77BFF10B14FF0805011
:10283000A1E75020005B01040A4600232068FFF74F
:1028400057FC05460DB1284695E7D4E90412A06966
:10285000CDE90012029094E80F00FFF76CFB002016
:1028600089E70000F8B50446002000900026002704
:102870002068FFF70DFC05460DB12846F8BD20681D
:10288000FFF71CFC054645B10021A1642068FFF755
:10289000FFFB05461DB12846F0E70121A164A06CAD
:1028A000012808D100212068FFF780FB054615B1FB
:1028B0004FF08050E2E71DE000212068FFF776FB33
:1028C00005460DB12846D9E718492068FFF78AFB6D
:1028D000054615B14FF08050D0E700212068FFF782
:1028E00024FB0646012080EAD67080F0010700989C
:1028F000401C00904FF6FF710098884201D2002FD3
:10290000DAD04FF6FF710098884202D34FF0807002
:10291000B4E706F08040B0F1804F02D1012060643E
:1029200001E0002060640020A8E70000000010C162
:102930007CB5044600200090019000212068FFF73C
:10294000F4FA00F00070B0F1007F02D14FF40060A3
:102950007CBD69462046FFF75DFE05460DB1284661
:10296000F6E7019800F4803098B15022125B110410
:102970002068FFF71BFB05460DB12846E8E700215C
:102980002068FFF769FB05460DB12846E0E7002007
:10299000DEE74FF08060DBE77CB504460020009066
:1029A000019000212068FFF7C0FA00F00070B0F13C
:1029B000007F02D14FF400607CBD69462046FFF7DE
:1029C00029FE05460DB12846F6E7019800F480205F
:1029D00098B15022125B11042068FFF7E7FA054610
:1029E0000DB12846E8E702212068FFF735FB0546D0
:1029F0000DB12846E0E70020DEE74FF08060DBE71E
:102A0000704730B58FB005460024012005900004C2
:102A100006900020079002200C90C1030D910E95A6
:102A200005A8FEF7C7FB04460CB100BFFEE70F2068
:102A3000009002200190002002904FF480600390EB
:102A40000020049002216846FEF77EFA04460CB18D
:102A500000BFFEE70FB030BD10B5FEF79BF810BD0C
:102A60001148006840F001000F49086008464068BE
:102A70000E4908400C494860084600680C49084067
:102A8000094908600846006820F48020086008466C
:102A9000406820F4FE0048604FF41F008860C803BF
:102AA0000449086070470000001002400000FFF871
:102AB000FFFFF6FE08ED00E070B505466C6A0020E9
:102AC000E085E0842046FFF705F870BD0168C9681D
:102AD00021F490710268D1600168496921F0010117
:102AE00002685161202180F83A10704710B5044601
:102AF0002068C06820F040002168C860202084F869
:102B000039002046FFF7A2F9002010BD70B5044639
:102B100094F83A0022284AD1A068B0F5805F13D11A
:102B2000A56A206940B920684068C0F30800288081
:102B3000A06A801CA06219E020684068C0B22880AA
:102B4000A06A401CA06211E0206938B92068406882
:102B5000C1B2A26A501CA062117007E020684068F0
:102B600000F07F01A26A501CA0621170E08D401E2F
:102B700080B2E085C8B92068C06820F020002168D4
:102B8000C8602068C06820F480702168C860206830
:102B9000406920F0010021684861202084F83A0053
:102BA0002046FFF70FF9002070BD0020FCE702204F
:102BB000FAE7000070B504462168096921F4405124
:102BC000E2681143226811612269A16811436269B8
:102BD00041EA02052168C96841F20C629143294328
:102BE0002268D1602168496921F44071A2691143CA
:102BF00022685161564A2168914254D1FEF780FA09
:102C000000EBC00101EB001162689200B1FBF2F130
:102C100000EBC00202EB001263689B00B2FBF3F210
:102C20006423B2FBF3F202EBC20303EB0212A1EB4B
:102C30008201322202EB01116422B1FBF2F101F0B8
:102C4000F00100EBC00202EB001263689B00B2FBD4
:102C5000F3F26423B2FBF3F201EB021200EBC001CA
:102C600001EB001163689B00B1FBF3F100EBC003C3
:102C700003EB00136668B600B3FBF6F36426B3FB00
:102C8000F6F303EBC30606EB0313A1EB8301322338
:102C900003EB01116423B1FBF3F101F00F011144C7
:102CA0002268916053E0FEF71BFA00EBC00101EBD4
:102CB000001162689200B1FBF2F100EBC00202EB7E
:102CC000001263689B00B2FBF3F26423B2FBF3F2E1
:102CD00002EBC20303EB0212A1EB8201322202EBF0
:102CE00001116422B1FBF2F101F0F00100EBC0022E
:102CF00002EB001263689B00B2FBF3F26423B2FBA9
:102D0000F3F201EB021200EBC00101EB001163686A
:102D10009B00B1FBF3F100EBC00303EB001366680B
:102D2000B600B3FBF6F36426B3FBF6F303EBC3067E
:102D300006EB0313A1EB8301322303EB01116423A0
:102D4000B1FBF3F101F00F0111442268916070BDF5
:102D500000380140014691F8390021282CD18868BB
:102D6000B0F5805F0FD10A6A1088C0F308000B68C5
:102D70005860086918B9086A801C086209E0086A86
:102D8000401C086205E00B6A581C086218780B6842
:102D90005860C88C401E80B2C88458B90868C068A2
:102DA00020F080000B68D8600868C06840F04000E0
:102DB0000B68D860002070470220FCE710B50024A3
:102DC0000C48FEF793FE00BF01E0641C00BF0948F9
:102DD000FEF781FE2028F8D100BF002401E0641C2A
:102DE00000BF012204490348FEF7B4FF0028F6D1D2
:102DF00000BF10BDE80000201A00002000BFFEE761
:102E00000FB4054B10B503A9044A029800F034F83A
:102E100010BC5DF814FB00004533000814000020CE
:102E200002480068C0F30220704700000CED00E08B
:102E300010B5002804DB0A07130E054A135406E0F8
:102E40000A07140E034A00F00F031B1FD45410BDD1
:102E500000E400E018ED00E002E008C8121F08C11D
:102E6000002AFAD170477047002001E001C1121F0B
:102E7000002AFBD1704700002DE9FF4F8DB00F46AF
:102E80000546002606E025280BD0DDE90F12904705
:102E90006D1C761C28780028F5D111B03046BDE8AD
:102EA000F08F0024A246A1460122E94900E0044334
:102EB00015F8013F203B02FA03F00842F7D12878C9
:102EC0002A2810D06FF02F022878A0F130010929AC
:102ED00014D80AEB8A0102EB410144F0020400EB32
:102EE000010A6D1CF0E701CF5FEA000A03D544F444
:102EF0000054CAF1000A44F002046D1C28782E2800
:102F000017D115F8010F44F004042A280ED06FF0F1
:102F10002F022878A0F1300109290AD809EB89018C
:102F200002EB410100EB01096D1CF2E757F8049B2D
:102F30006D1C28786C280FD006DC4C2817D0682828
:102F40000DD06A2814D104E0742810D07A280FD14B
:102F50000DE044F400140AE044F4801401E044F469
:102F600040146978814202D104F580146D1C6D1CF7
:102F700028786E281ED00CDC632830D004DC0028B2
:102F80008BD0582811D19FE0642867D069280CD1D4
:102F900064E073282DD004DC6F2872D0702804D12F
:102FA00094E075286ED078286DD0DDE90F12904737
:102FB000761C4BE1C4F30250022806D0032809D046
:102FC000042801CF09D0066040E101CFF117C0E924
:102FD00000613BE101CF068038E1067036E117F869
:102FE000040B8DF8000000208DF80100EB46012055
:102FF00003E057F804BB4FF0FF3061074FF00001CA
:1030000002D40DE008F10101884649450FDA8045F8
:10301000F8DB1BF808100029F4D108E008F10101E1
:1030200088468142FADB1BF808100029F6D1DDE959
:103030000F23AAEB08008146214600F031F9304405
:1030400000EB080604E0DDE90F121BF8010B9047C6
:10305000B8F10108F7D221464846F2E00A21C4F34C
:1030600002524FF0000B0891022A04D001CFC11781
:10307000032A09D00AE0FF1D27F00707F7E802013D
:1030800008E02CE01EE01FE000B2C117042A01D1C5
:1030900040B2C117021E71F1000206DA0023D0EB24
:1030A000030063EB01012D2202E0220504D52B224F
:1030B0008DF82420012203E0E20701D02022F7E767
:1030C000904653E00A210BE0102109E010214FF057
:1030D000000B44F004044FF00809089103E00821B4
:1030E0004FF0000B0891C4F30252022A04D001CF22
:1030F0000021032A06D006E0FF1D27F00707F7E8A6
:10310000020103E080B2042A00D1C0B24FF00008EF
:1031100022072BD52A78702A07D0DDF820C08CF042
:10312000100C5CEA0B0C05D00EE040228DF8242038
:10313000012208E050EA010306D030238DF8243044
:103140008DF8252002229046089B83F0080353EA5D
:103150000B030BD150EA010201D1620706D53022E0
:103160008DF824204FF00108A9F101092A78582A86
:1031700004D038A20B9208AA0A920BE03AA2F9E70F
:103180005B46089AFDF702F80B9B9B5C0A9A521E5D
:103190000A92137050EA0102F2D10A98ADEB0000D6
:1031A00000F1200B600702D524F4803401E04FF0D9
:1031B0000109D94502DDA9EB0B0000E0002000EB7E
:1031C0000B0141440890AAEB010AE00306D4DDE9B3
:1031D0000F232146504600F063F806444FF00009E3
:1031E00008E009A911F80900DDE90F12904709F17B
:1031F0000109761CC145F4DBE0030CD5DDE90F23A2
:103200002146504600F04CF8064404E0DDE90F1278
:1032100030209047761C0899481E08900029F5DC5C
:1032200008E00A980A990078491C0A91DDE90F1212
:103230009047761CBBF10001ABF1010BF1DC21469C
:103240005046DDE90F2300F019F806446D1C21E615
:10325000092801003031323334353637383961626C
:103260006364656600000000303132333435363730
:103270003839414243444546000000002DE9F04101
:10328000044600251E461746880404D405E0394646
:103290002020B0476D1C641EF9D52846BDE8F0819A
:1032A0002DE9F041044600251E469046C80301D58D
:1032B000302700E02027880404D505E04146384641
:1032C000B0476D1C641EF9D52846BDE8F0810000AA
:1032D00010B504460420FEF7CFFB0148046010BD82
:1032E0001000002030B50446002504E04FF47A7049
:1032F00000F004F86D1CA542F8D330BD70B503464C
:1033000000224FF0E02675690D4E366803FB06F487
:103310004FF0E026B16910E04FF0E026B069884236
:103320000BD0884202D20E1A324402E02E1A0E440A
:1033300032440146A24200D300E0EDE700BF70BD79
:103340001000002000BF054A126802F04002002A67
:10335000F9D0C2B2014B1B1D1A6070470038014002
:1033600010B5FDF723FC4FF4E010FFF74AFB4FF4D4
:10337000E13000F02BF94820FFF7AAFFFEF76AFDC5
:10338000FCF7C2FF0DE000F015F80948006808B925
:10339000012000E00020064908604FF4FA70FFF7B2
:1033A000A1FFFFF713F90028EDD0002010BD0000A9
:1033B0009481214230B587B001A92348FEF780F9F6
:1033C0002248FFF7C1F92148006810B1012813D144
:1033D0000EE01E48406818B91DA0FFF711FD06E079
:1033E0001A484068012802D11EA0FFF709FD03E03A
:1033F00021A0FFF705FD00BF00BF144880691349F5
:10340000C969A0FB01459DF8041020A0FFF7F8FC56
:103410000E48C16824A0FFF7F3FC0C48816926A080
:10342000FFF7EEFC0948C16928A0FFF7E9FC200D71
:1034300040EA05312AA0FFF7E3FC044841692EA0C9
:10344000FFF7DEFC07B030BD58010020DC01002092
:103450004361726420547970653A53445343205653
:10346000310D0A004361726420547970653A534407
:1034700053432056320D0A00436172642054797020
:10348000653A534448430D0A0000000043617264EA
:10349000204D616E75666163747572657249443A58
:1034A00025640D0A0000000043617264205243410C
:1034B0003A25640D0A0000004C6F67426C6F636B25
:1034C0004E62723A2564200D0A0000004C6F67427C
:1034D0006C6F636B53697A653A2564200D0A0000AE
:1034E000436172642043617061636974793A256451
:1034F000204D420D0A0000004361726420426C6F4F
:10350000636B53697A653A25640D0A0D0A00000061
:1035100010B52B480078002836D001212948FDF746
:1035200025FB01280ED010212748FDF71FFB48B1CD
:1035300008212548FDF71AFB20B104212248FDF798
:1035400015FB08BB1420FFF7CDFE00201C490870B6
:1035500001211C48FDF70AFB012800D110BD1021F4
:103560001948FDF703FB08B90220F7E708211648C0
:10357000FDF7FCFA08B90320F0E704211248FDF733
:10358000F5FAD0B90420E9E701210E48FDF7EEFA7B
:1035900098B910210C48FDF7E9FA01280DD108214E
:1035A0000948FDF7E3FA012807D104210648FDF791
:1035B000DDFA012801D1024908700020CEE70000A1
:1035C0001B000020000801400018014010B504460F
:1035D00009480A4908600846446000218160C160CA
:1035E000016181610C214161FEF726FB0122044942
:1035F0000248FEF7AFFB10BD00380140E800002094
:103600001A00002000000000000000000102030476
:103610000607080900000000010203043C36000808
:103620000000002020000000582E00085C36000832
:1036300020000020E0050000682E00080024F400AF
:103640000000000010000000010000000000000069
:0C3650000000000000000001010000006C
:0400000508000131BD
:00000001FF
