:020000040800F2
:10000000981E0020490100086923000827220008E3
:1000100065230008090300082135000800000000DE
:100020000000000000000000000000002531000872
:100030001D030008000000006D2300087D3100084A
:100040006301000863010008630100086301000800
:1000500063010008630100081F0300086301000832
:1000600063010008630100086301000863010008E0
:1000700063010008630100086301000863010008D0
:1000800063010008630100086301000863010008C0
:1000900063010008630100086301000863010008B0
:1000A00063010008630100086301000863010008A0
:1000B0006301000863010008630100086301000890
:1000C0006301000863010008630100086301000880
:1000D00063010008E13400086301000863010008BF
:1000E0006301000863010008630100086301000860
:1000F0006301000863010008630100086301000850
:10010000630100086301000863010008630100083F
:10011000630100086301000863010008630100082F
:100120006301000863010008630100080D03000873
:10013000DFF810D000F062F800480047B15B00081B
:10014000AFF30080981E002006488047064800470D
:10015000FEE7FEE7FEE7FEE7FEE7FEE7FEE7FEE777
:10016000FEE7FEE78531000831010008202A04DBA4
:10017000203A21FA02F00021704721FA02F3D04020
:10018000C2F120029140084319467047421C10F802
:10019000011B0029FBD1801A70472DE9F05F05464D
:1001A000002092469B4688460646814640241BE036
:1001B0002846414647462246FFF7D8FF53465A464F
:1001C000C01A914110D311461846224600F028F873
:1001D0002D1A67EB01084F4622460120002100F04E
:1001E0001FF817EB00094E41201EA4F10104DFDCCB
:1001F000484631462A464346BDE8F09F064C074D27
:1002000006E0E06840F0010394E8070098471034E6
:10021000AC42F6D3FFF790FF840F0308A40F030846
:10022000202A04DB203A00FA02F1002070479140B6
:10023000C2F1200320FA03F31943904070470000F5
:1002400010B504462146024801F0EAFA10BD00004C
:100250004C05002010B5044801F0F5FA042801D03F
:10026000012010BD0020FCE74C05002010B5002443
:1002700000F014F8012801D0012010BD064801F05B
:10028000F4FA044634B94FF40061034801F090F9E0
:1002900000B101242046F0E74C05002008B50120FC
:1002A00000909DF8000008BD2DE9F84304460D4676
:1002B00016461F464FF0000833462A462146054899
:1002C000009701F0A9FB08B14FF001084046BDE8D6
:1002D000F88300004C0500202DE9F84304460D4644
:1002E00016461F464FF0000833462A462146054869
:1002F000009701F0B1FC08B14FF001084046BDE89D
:10030000F88300004C05002000BFFEE710B502484E
:1003100000F014F910BD0000D0050020704710B5A2
:10032000012000F049FB10BD72B600BFFEE730B5FA
:1003300004460D4600222946204600F001F830BD53
:10034000F0B50346012500241148407A01281CDC41
:1003500000200F4E767A0E4FB8553846467A001D6B
:1003600040F82630001F467A083082553E46707AA3
:10037000461C7E72044604F1300008703A20487032
:100380002F2088700020C87000252846F0BD00008E
:100390002C06002070B50446002594F821000228A0
:1003A00003D00420A0630125C1E02068006820F08C
:1003B0000E00216808602068006820F001002168B4
:1003C00008605C492068884252D95A4978392068C7
:1003D000884201D1012047E05649643920688842AB
:1003E00001D1102040E0534950392068884201D1A2
:1003F000801539E04F493C392068884201D180148A
:1004000032E04C4928392068884202D14FF48030CC
:100410002AE0484914392068884202D14FF48010FC
:1004200022E044492068884201D140041CE042494E
:100430002068884201D1012016E03F49143120682C
:10044000884201D110200FE03B49283120688842C2
:1004500001D1801508E038493C312068884201D13B
:10046000801401E04FF480303349091F086051E0E7
:10047000304978392068884201D1012047E02D4970
:1004800064392068884201D1102040E02949503960
:100490002068884201D1801539E026493C3920681E
:1004A000884201D1801432E02249283920688842EC
:1004B00002D14FF480302AE01E4914392068884266
:1004C00002D14FF4801022E01A492068884201D1FD
:1004D00040041CE018492068884201D1012016E040
:1004E000154914312068884201D110200FE01249CB
:1004F00028312068884201D1801508E00E493C313E
:100500002068884201D1801401E04FF4803009490D
:1005100080394860012084F8210000BF002084F861
:10052000200000BF606B10B12046616B88472846F1
:1005300070BD0000800002400804024070B504460F
:10054000E06B05682068066894F840100420884035
:100550002840002875D006F004000028FAD0206852
:10056000006800F0200028B92068006820F004002E
:1005700021680860D5492068884254D9D349783920
:100580002068884201D1042049E0D04964392068BC
:10059000884201D1402042E0CC495039206888424D
:1005A00001D100153BE0C9493C392068884202D19D
:1005B0004FF4804033E0C54928392068884202D191
:1005C0004FF480202BE0C14914392068884202D1C1
:1005D0004FF4800023E0BD492068884201D1C00467
:1005E0001DE0BB492068884201D1042017E0B849CA
:1005F00014312068884201D1402010E0B4492831EC
:100600002068884201D1001509E0B1493C312068D9
:10061000884202D14FF4804001E04FF48020AC4981
:10062000091F086054E0A94978392068884201D13F
:1006300004204AE0A54964392068884202D140205C
:1006400043E04CE0A14950392068884201D10015AF
:100650003BE09E493C392068884202D14FF48040FB
:1006600033E09A4928392068884202D14FF480202B
:100670002BE0964914392068884202D14FF480005B
:1006800023E092492068884201D1C0041DE09049CE
:100690002068884201D1042017E08D491431206878
:1006A000884201D1402010E08949283120688842E1
:1006B00001D1001509E086493C312068884202D109
:1006C0004FF4804001E04FF4802080498039486039
:1006D000E06A002802D02046E16A8847F4E094F8F6
:1006E0004010022088402840002871D006F0020007
:1006F0000028FAD02068006800F0200040B9206887
:10070000006820F00A0021680860012084F82100B8
:100710006E492068884254D96C49783920688842EB
:1007200001D1022049E0694964392068884201D139
:10073000202042E0654950392068884201D14015A7
:100740003BE062493C392068884202D14FF40050B6
:1007500033E05E4928392068884202D14FF40030E6
:100760002BE05A4914392068884202D14FF4001016
:1007700023E056492068884201D180041DE0544995
:100780002068884201D1022017E0514914312068C5
:10079000884201D1202010E04D492831206888424C
:1007A00001D1401509E04A493C312068884202D114
:1007B0004FF4005001E04FF400304549091F086034
:1007C00054E0424978392068884202D102204AE048
:1007D00057E03E4964392068884201D1202042E038
:1007E0003A4950392068884201D140153BE03749E9
:1007F0003C392068884202D14FF4005033E033493D
:1008000028392068884202D14FF400302BE02F496C
:1008100014392068884202D14FF4001023E02B499C
:100820002068884201D180041DE02949206888425F
:1008300001D1022017E0264914312068884201D1F5
:10084000202010E0224928312068884201D140153B
:1008500009E01F493C312068884202D14FF4005022
:1008600001E04FF4003019498039486000BF002092
:1008700084F8200000BFA06A30B32046A16A8847F0
:1008800022E094F84010082088402840E0B106F0AB
:100890000800C8B12068006820F00E0021680860D8
:1008A00094F8401001208840E16B48600120A0636B
:1008B00084F8210000BF002084F8200000BF206BD6
:1008C00010B12046216B884770BD000080000240B7
:1008D000080402400146002209B9012070471E4B5E
:1008E000086898420BD21D4B0868C01A1423B0FB4D
:1008F000F3F08000086419480838C8630AE0164B12
:100900000868C01A1423B0FBF3F080000864124892
:100910000838C863022081F821000868026843F69D
:10092000F0708243D1E901031843CB6818430B6987
:1009300018434B6918438B691843CB69184302432A
:100940000868026000208863012081F821000020EF
:1009500081F8200000BFC1E70804024008000240FF
:1009600070B5044600F0E4F906462546681C10B14F
:1009700004480078054400BF00F0DAF9801BA84263
:10098000FAD370BD1C00002010B5044605F01EFB14
:100990000121074800F0BEF9012807D10548006889
:1009A00008B9012000E000200249086010BD0000E5
:1009B000000801409481214210B5044604480068B3
:1009C000204020B1024804602046FFF7DDFF10BD43
:1009D000140401402DE9F847024600239C467BE1C0
:1009E0004FF0010808FA03F4D1F8008008EA040087
:1009F000A0427DD1DFF8F4A2D1F80480A8EB0A0967
:100A0000D0453AD014DCB8F1030F50D009DCB8F16E
:100A1000000F31D0B8F1010F1CD0B8F1020F49D14D
:100A200020E0B8F1110F18D0B8F1120F42D11EE03A
:100A3000B9F5881F25D006DCB9F5803F20D0B9F57F
:100A4000801F37D11AE0B9F5001F18D0B9F5041F7F
:100A500030D117E0D1F80CC02DE0D1F80C8008F1AE
:100A6000040C28E0D1F80C8008F1080C23E0D1F840
:100A70000C8008F10C0C1EE000BF00BF00BF00BFDF
:100A800000BF00BFD1F80880B8F1000F02D14FF0CD
:100A9000040C0BE0D1F80880B8F1010F03D14FF03E
:100AA000080C146102E04FF0080C546103E04FF0B1
:100AB000000C00E000BF00BFFF2801D8904601E015
:100AC00002F104084646FF2802D84FEA830803E0F3
:100AD000A3F108084FEA88084746D6F800804FF08F
:100AE0000F0909FA07F928EA09080CFA07F900E0E2
:100AF0007AE048EA0908C6F80080D1F8048008F0D6
:100B00008058B8F1805F6FD100BFDFF8E481D8F87A
:100B1000188048F00108DFF8D891C9F81880C84655
:100B2000D8F8188008F00108CDF8008000BF00BF99
:100B30004FEAB9384FEA930958F829504FEA8378B9
:100B40004FEA18794FF00F0808FA09F825EA080566
:100B5000DFF8A081424502D14FF0000824E0DFF821
:100B60009881424502D14FF001081DE0DFF88C81E9
:100B7000424502D14FF0020816E0DFF88481424579
:100B800002D14FF003080FE0DFF87881424502D12F
:100B90004FF0040808E0DFF87081424502D14FF0C1
:100BA000050801E04FF006084FEA83794FEA19790A
:100BB00008FA09F848EA0505DFF850814FEA930979
:100BC00048F82950D1F8048008F48038B8F5803FFF
:100BD0000BD1DFF83C81D8F8008048EA0008DFF844
:100BE0003091C9F800800AE075E0DFF82481D8F878
:100BF000008028EA0008DFF81891C9F80080D1F8D1
:100C0000048008F40038B8F5003F0ED1DFF8008109
:100C100008F10408D8F8008048EA0008DFF8F090EE
:100C200009F10409C9F800800DE0DFF8E48008F15B
:100C30000408D8F8008028EA0008DFF8D49009F109
:100C40000409C9F80080D1F8048008F48018B8F5C8
:100C5000801F0ED1DFF8B88008F10808D8F80080AE
:100C600048EA0008DFF8A89009F10809C9F80080EF
:100C70000DE0DFF89C8008F10808D8F8008028EA29
:100C80000008DFF88C9009F10809C9F80080D1F854
:100C9000048008F40018B8F5001F0ED1DFF870804A
:100CA00008F10C08D8F8008048EA0008DFF86090E6
:100CB00009F10C09C9F800800DE0DFF8548008F153
:100CC0000C08D8F8008028EA0008DFF8449009F101
:100CD0000C09C9F800805B1CD1F8008028FA03F8E1
:100CE000B8F1000F7FF47CAEBDE8F887000011106A
:100CF0000010024000080140000C014000100140BB
:100D00000014014000180140001C0140080001408F
:100D100000040140024693680B400BB1012000E043
:100D2000002070470AB1016101E00B0403617047C4
:100D30000148006870470000140000200348006864
:100D400003490978084401490860704714000020ED
:100D50001C00002010B50848006840F0100006494B
:100D60000860052000F0A8F80F2000F007F800F058
:100D70002BF8002010BD00000020024070B5044692
:100D80000E4800784FF47A71B1FBF0F00C49096815
:100D9000B1FBF0F5284601F06FF808B1012070BDF5
:100DA000102C07D200222146501E00F047F80548BB
:100DB000046001E00120F2E70020F0E71C000020C1
:100DC000100000201800002008B500BF11488069FD
:100DD00040F001000F4988610846806900F0010079
:100DE000009000BF00BF00BF0846C06940F08050BF
:100DF000C8610846C06900F08050009000BF00BF85
:100E000000BF0549486820F0E06040F0007048608D
:100E100000BF08BD00100240000001400146084626
:100E2000002809DB00F01F0301229A4043099B00C0
:100E300003F1E023C3F8002100BF70472DE9F05F04
:100E400080460D461646002702F080FB07463946CD
:100E50002A46334601F00700C0F1070ABAF1040F31
:100E600002D94FF0040A01E0C0F1070AD14600F1AF
:100E7000040ABAF1070F02D24FF0000A01E0A0F114
:100E8000030AD4464FF0010A0AFA09FAAAF1010A44
:100E90000AEA020A0AFA0CFA4FF0010B0BFA0CFBF1
:100EA000ABF1010B0BEA030B4AEA0B042146404667
:100EB00002F054FBBDE8F09F00BF00F00702064BB4
:100EC00019684FF6FF031940044B0B4343EA022114
:100ED000014B196000BF70470CED00E00000FA05FF
:100EE00070B504460D460CB9012070BD5A48006823
:100EF00000F00700A8420ED25748006820F0070013
:100F00002843554908600846006800F00700A842D9
:100F100001D00120E9E7207800F0020002281DD16D
:100F2000207800F00400042805D14C48406840F4C3
:100F3000E0604A494860207800F00800082805D1A0
:100F40004648406840F4605044494860434840681F
:100F500020F0F000A168084340494860207800F084
:100F6000010078B36068012806D13C48006800F4AD
:100F7000003090B90120B8E76068022806D13748F0
:100F8000006800F0007040B90120AEE73348006807
:100F900000F0020008B90120A7E73048406820F0BF
:100FA0000300616808432D494860FFF7C1FE06460B
:100FB00009E0FFF7BDFE801B41F28831884202D96B
:100FC000032092E707E02548406800F00C006168C4
:100FD000B0EB810FEDD12048006800F00700A84277
:100FE0000ED91D48006820F0070028431A49086000
:100FF0000846006800F00700A84201D0012074E70D
:10100000207800F00400042807D11448406820F438
:10101000E060E168084311494860207800F008006A
:10102000082808D10D48406820F46050216940EA42
:10103000C1000A49486000F03FF808494968C1F317
:101040000311074A515CC840064908600648006819
:10105000FFF794FE002048E7002002400010024005
:1010600056620008100000201800002001480068A7
:10107000704700001000002000B5FFF7F7FF04499B
:101080004968C1F30221034A515CC84000BD000019
:10109000001002406662000800B5FFF7E7FF044950
:1010A0004968C1F3C221034A515CC84000BD000039
:1010B0000010024066620008F0B585B00FF26C0CBB
:1010C0009CE8E01001A8A0E8E0101CA52D680095A0
:1010D00000210022002300240020194D696801F03E
:1010E0000C05F5B1042D02D0082D19D101E01548E9
:1010F00019E001ADC1F38346AC5D01F4803555B113
:101100000F4D6D68C5F340451DF805200D4D654335
:10111000B5FBF2F302E00C4D04FB05F3184602E0C8
:1011200000BF084800BF00BF05B0F0BD02030405C2
:10113000060708090A0B0C0D0E0F10100102000023
:101140000010024000127A0000093D00F8B5044684
:101150000CB90120F8BD207800F00100002878D0FB
:10116000F848406800F00C0004280CD0F5484068AE
:1011700000F00C00082811D1F248406800F48030DB
:10118000B0F5803F0AD1EF48006800F40030002835
:101190005FD0606800285CD10120DBE700BF606899
:1011A000B0F5803F06D1E748006840F48030E5495B
:1011B000086028E0606858B9E248006820F4803090
:1011C000E04908600846006820F4802008601AE0C2
:1011D0006068B0F5A02F0BD1DA48006840F4802099
:1011E000D84908600846006840F4803008600AE08A
:1011F000D448006820F48030D2490860084600686E
:1012000020F48020086000BF606888B1FFF790FD7F
:10121000054606E0FFF78CFD401B642801D903203A
:1012200098E7C848006800F400300028F2D010E0C9
:10123000FFF77EFD054606E0FFF77AFD401B6428B8
:1012400001D9032086E7BF48006800F40030002879
:10125000F2D1207800F00200022857D1B948406846
:1012600000F00C0050B1B748406800F00C000828AE
:1012700018D1B448406800F4803098B9B14800688B
:1012800000F0020020B12069012801D0012061E7AF
:10129000AC48006820F0F800616940EAC100A94943
:1012A000086033E02069E8B10120A7490860FFF732
:1012B0003FFD054606E0FFF73BFD401B022801D934
:1012C000032047E79F48006800F002000028F2D0A2
:1012D0009C48006820F0F800616940EAC100994923
:1012E000086013E0002098490860FFF721FD0546DB
:1012F00006E0FFF71DFD401B022801D9032029E766
:101300009048006800F002000028F2D1207800F038
:10131000080008282DD1A069B8B101208B490860C8
:10132000FFF706FD054606E0FFF702FD401B022819
:1013300001D903200EE78348406A00F0020000282C
:10134000F2D0012001F014F813E000207F4908607A
:10135000FFF7EEFC054606E0FFF7EAFC401B02281B
:1013600001D90320F6E67748406A00F00200002821
:10137000F2D1207800F00400042873D100277148CE
:10138000C06900F0805070B900BF6E48C06940F07D
:1013900080506C49C8610846C06900F080500090D8
:1013A00000BF00BF01276A48006800F48070B0B930
:1013B0006748006840F4807065490860FFF7B8FC32
:1013C000054606E0FFF7B4FC401B642801D9032062
:1013D000C0E65F48006800F480700028F2D000BFCB
:1013E000E068012806D15748006A40F001005549DD
:1013F000086227E0E06858B95248006A20F001000E
:10140000504908620846006A20F00400086219E0AA
:10141000E06805280BD14B48006A40F004004949B8
:1014200008620846006A40F0010008620AE0454888
:10143000006A20F00100434908620846006A20F073
:101440000400086200BFE068A0B1FFF771FC054628
:1014500009E0FFF76DFC401B41F28831884202D958
:10146000032077E622E03748006A00F002000028F7
:10147000EFD012E0FFF75CFC054608E0FFF758FCF0
:10148000401B41F28831884201D9032062E62D4891
:10149000006A00F002000028F0D1012F05D1294890
:1014A000C06920F080502749C86100BFE069C8B317
:1014B0002448406800F00C00082860D0E069022849
:1014C00048D1002020490866FFF732FC054606E0B7
:1014D000FFF72EFC401B022801D903203AE61948E9
:1014E000006800F000700028F2D1206AB0F5803F5B
:1014F00007D11448406820F40030A168084311491E
:101500004860D4E9080108430E49496821F4741180
:1015100008430C49486001200B490866FFF708FCA6
:10152000054607E03DE0FFF703FC401B022801D918
:1015300003200FE60348006800F000700028F2D096
:101540002FE00000001002400000424280044242AE
:1015500000700040002014490866FFF7E9FB0546CB
:1015600006E0FFF7E5FB401B022801D90320F1E567
:101570000E48006800F000700028F2D111E0E06928
:10158000012800D1E6E50948466806F48031206A62
:10159000814204D106F47011606A814201D00120B9
:1015A000D8E50020D6E500000000424200100240CD
:1015B00070B58AB004460D46032084F83400606C90
:1015C000032820D0B5F5805F04D1A06B40F0805097
:1015D000A0631CE0B5F5006F07D1204601F0CAFCFE
:1015E0000646A06B3043A06311E03DB9204601F0F0
:1015F0008DFC0646A06B3043A06308E0A06B40F072
:101600000060A06303E0A06B40F08050A063A06B7B
:1016100038B1104821688863012084F834000AB08A
:1016200070BD60680490A0680590E068069007951A
:1016300060690890A069099007A807C88DE80700AD
:10164000206804A90EC900F0CCFE012084F8340003
:101650000020E4E7FF05400010B50246506E800F01
:101660000870506EC0F383604870506EC0F3016024
:101670008870506E000CC870B2F86400000A0871DF
:1016800092F864004871906E000DC880906EC0F3AF
:10169000034008726820805AC0F3C0304872682046
:1016A000805AC0F3803088726820805AC0F340307E
:1016B000C8726820805AC0F3003008730020487355
:1016C000506C002836D16820805A8005030DD06EFA
:1016D00043EA90700861D06EC0F3C2600875D06EA6
:1016E000C0F302604875D06EC0F342508875D06E6A
:1016F000C0F38240C875D06EC0F3C2300876086966
:10170000401C50650B7E506D03F007039B1C0124A9
:101710009C4060435065087A00F00F030120984018
:101720009065D2E915035B0A5843D0654FF4007306
:10173000136621E0506C012813D16820805C80067C
:10174000830AD06E43EA104008610869401C830296
:101750005365536DD3654FF400739365936D1366B2
:101760000AE02E4813689863906B40F080509063B5
:10177000012082F8340010BD6C20805AC0F3803004
:1017800001F8190F6C20805AC0F3C61048706C2005
:10179000805C00F07F008870106FC00FC870106F01
:1017A000C0F341700871106FC0F382604871106F10
:1017B000C0F383508871106FC0F34050C87100208F
:1017C0000872106FC0F3004048727020805AC0F356
:1017D000C03088727020805AC0F38030C872702088
:1017E000805AC0F3403008737020805AC0F3003034
:1017F00048737020805AC0F3812088737020805A0B
:10180000C0F30120C8737020805CC0F346000874E8
:101810000120487419390020ADE70000FF054000A1
:101820000246506C0860906C4860D06C8860106D07
:10183000C860506D0861906D4861D06D8861106E10
:10184000C86100207047F8B5044600200090694642
:10185000204601F043FB054615B1A06B2843A06369
:101860000098C0F343263046F8BD10B504460CB9C5
:10187000012010BD94F8340020B9002020772046C4
:1018800000F054F8032084F83400204600F00CF8EF
:1018900008B10120EDE70020A0632063012084F857
:1018A00034000020E5E7000070B58AB0044600204F
:1018B000049005900690079008907620099007A85C
:1018C00007C88DE80700206804A90EC900F089FD4B
:1018D000064616B101200AB070BD0020124908600A
:1018E000206800F098FD01200F49A039C1F8A00040
:1018F000204601F08DFA05463DB1012084F8340000
:10190000A06B2843A0630120E5E7204601F0FEF923
:1019100005463DB1012084F83400A06B2843A06344
:101920000120D8E70020D6E7A000304210B586B0ED
:1019300004460020029003900490059030492068EE
:1019400088425BD100BF2F48406940F480602D4938
:1019500048610846406900F48060019000BF00BF04
:1019600000BF0846806940F0100088610846806921
:1019700000F01000019000BF00BF00BF0846806962
:1019800040F0200088610846806900F02000019046
:1019900000BF00BF4FF4F8500290022003900320D4
:1019A000059002A91848FFF715F8042002900220BC
:1019B00003900320059002A91448FFF70BF8144880
:1019C000144908600020486000211248816080218D
:1019D000C160890001618900416100218161C161AB
:1019E000FEF778FF08B1FEF79FFC00BF09482064AE
:1019F000446200BF00BFE063446200BF06B010BD98
:101A0000008001400010024000100140001401401D
:101A100044040240D00500202DE9F04F87B0044671
:101A20008A4690461E46DDF840900025FFF780F973
:101A30000090AB465746BAF1000F07D1A06B40F0BB
:101A40000060A063012007B0BDE8F08F94F8340077
:101A500001287DD10020A06308EB0601E06D8142E2
:101A600005D9A06B40F00070A0630120EBE70320D4
:101A700084F8340000202168C862606C012801D01D
:101A80004FEA48284FF40071206800F025FD054614
:101A90004DB1704821688863A06B2843A063012082
:101AA00084F83400CFE74FF0FF30019070020290CD
:101AB00090200390022004900020059001200690C1
:101AC00001A9206800F068FC012E07D902202063DC
:101AD0004146206800F068FD054606E001202063CD
:101AE0004146206800F07CFD05464DB1594821680B
:101AF0008863A06B2843A063012084F83400A2E728
:101B000029E02068406B00F4004068B14FF0000B02
:101B100006E0206800F088FC47F82B000BF1010B71
:101B2000BBF1080FF5D32037B9F1000F05D0FFF74F
:101B3000FFF80099401A48450DD34648216888634C
:101B4000A06B40F00040A063012084F8340000E066
:101B500079E0032077E72068406B40F22A310840A3
:101B60000028CED02068406B00F4807098B1012E20
:101B700011D9606C03280ED0206800F0F1FD0546F5
:101B80004DB1344821688863A06B2843A0630120CD
:101B900084F8340057E72068406B00F0080050B12B
:101BA0002C4821688863A06B40F00800A0630120E6
:101BB00084F8340047E72068406B00F0020050B121
:101BC000244821688863A06B40F00200A0630120D4
:101BD00084F8340037E72068406B00F0200050B1F3
:101BE0001C4821688863A06B40F02000A06301209E
:101BF00084F8340027E718E0206800F015FC38600E
:101C00003F1DB9F1000F05D0FFF792F80099401A77
:101C100048450AD30F4821688863A06B40F0004014
:101C2000A063012084F834000DE72068406B00F4C5
:101C300000100028E0D1074821688863012084F85B
:101C400034000020FFE6A06B40F00050A0630120AC
:101C5000F9E60000FF0540002DE9F04F87B004468B
:101C6000884617461E46DDF840B00025FFF760F8AD
:101C70000090A946C246B8F1000F07D1A06B40F012
:101C80000060A063012007B0BDE8F08F94F8340035
:101C900001287BD10020A063B919E06D814205D9EC
:101CA000A06B40F00070A0630120ECE7032084F8F3
:101CB000340000202168C862606C012800D07F02D7
:101CC0004FF40071206800F007FC05464DB15F48F5
:101CD00021688863A06B2843A063012084F8340046
:101CE000D1E7012E07D9202020633946206800F073
:101CF00055FD054606E0102020633946206800F0B7
:101D000069FD05464DB1514821688863A06B2843A1
:101D1000A063012084F83400B5E74FF0FF30019054
:101D20007002029090200390002004900590012002
:101D3000069001A9206800F02FFB28E02068406B86
:101D400000F4804070B14FF0000906E00AEB890111
:101D5000206800F081FB09F10109B9F1080FF5D302
:101D60000AF1200ABBF1000F05D0FEF7E1FF009950
:101D7000401A58450BD3354821688863A06B284327
:101D8000A063012084F8340003207CE757E020683A
:101D9000406B40F21A3108400028CFD02068406BD9
:101DA00000F4807098B1012E11D9606C03280ED018
:101DB000206800F0D5FC05464DB1244821688863B1
:101DC000A06B2843A063012084F834005BE72068FF
:101DD000406B00F0080050B11C4821688863A06B7C
:101DE00040F00800A063012084F834004BE720682D
:101DF000406B00F0020050B1144821688863A06B6A
:101E000040F00200A063012084F834003BE7206822
:101E1000406B00F0100050B10C4821688863A06B43
:101E200040F01000A063012084F834002BE707483D
:101E300021688863012084F83400002023E7A06B28
:101E400040F00050A06301201DE70000FF054000A6
:101E5000042808D14FF0E021096941F004014FF056
:101E6000E022116107E04FF0E021096921F004014F
:101E70004FF0E0221161704770B504462546681E98
:101E8000B0F1807F01D301200FE0681E4FF0E02108
:101E900048610F214FF0FF3001F060FB00204FF050
:101EA000E021886107200861002070BD704701466D
:101EB0000022002391F8392091F83A3042EA0300D9
:101EC000704700002DE9F047044620680568206847
:101ED000C668206847694FF00008C14605F00F0842
:101EE000B8F1000F0AD105F0200038B106F020004B
:101EF00020B1204601F09CF9BDE8F087B8F1000F51
:101F00006DD007F0010018B906F49070002866D073
:101F100005F0010030B106F4807018B1E06B40F0BC
:101F20000100E06305F0040030B107F0010018B1D2
:101F3000E06B40F00200E06305F0020030B107F012
:101F4000010018B1E06B40F00400E06305F0080008
:101F500030B107F0010018B1E06B40F00800E06319
:101F6000E06B68B305F0200028B106F0200010B146
:101F7000204601F05DF920684069C0F38019E06BEC
:101F800000F0080010B9B9F1000F22D0204601F08E
:101F90002FF92068406900F04000B0B12068406926
:101FA00020F0400021684861606B50B11748616BB8
:101FB0004863606BFEF7EEF910B1606B416B8847C8
:101FC0000CE02046FFF772FF08E02046FFF76EFFA7
:101FD00004E02046FFF76AFF0020E0638CE705F08D
:101FE000800030B106F0800018B1204601F044FABC
:101FF00082E705F0400030B106F0400018B12046FD
:1020000001F006F978E700BF76E70000DD3100084F
:1020100010B504460CB9012010BDA06900B100E064
:1020200000BF94F8390028B9002084F83800204611
:1020300000F028F8242084F839002068C06820F4D3
:1020400000502168C860204601F046F92068006908
:1020500020F49040216808612068406920F02A003F
:10206000216848612068C06840F400502168C86059
:102070000020E063202084F8390084F83A00002032
:10208000CAE7000010B586B004462549206888429A
:1020900044D100BF2348806940F004002149886191
:1020A0000846806900F00400019000BF00BF00BF37
:1020B0000846806940F4804088610846806900F4E1
:1020C0008040019000BF00BF00BF0846806940F01B
:1020D000010088610846806900F00100019000BF9E
:1020E00000BF4815029002200390012004900320B5
:1020F000059002A90C48FEF76DFC4FF48060029039
:102100000020039002A90848FEF764FC2520FEF792
:1021100085FE032211462520FEF790FE06B010BD75
:1021200000380140001002400008014010B503468D
:1021300093F83A0020282FD101B10AB9012010BD2F
:1021400000BF93F83800012801D10220F7E70120F1
:1021500083F8380000BF99629A85DA850020D86339
:10216000222083F83A0000BF002083F8380000BF27
:102170001868C06840F480701C68E06018684069A6
:1021800040F001001C6860611868C06840F02000E1
:102190001C68E0600020D2E70220D0E71D4A0168F9
:1021A000914236D11C49098801F4004189BB1A4982
:1021B000098801F4804171B1184909780A2903D0CE
:1021C0000021154A118024E01349098841F4004197
:1021D000114A11801DE0114909780D2906D10E49D7
:1021E000098841F480410C4A118012E00B490978BA
:1021F000094A1288C2F30D02094B9954064909880D
:10220000491C054A118011460988C72901DD0021B2
:102210001180704700380140280000202A0000206B
:1022200044040020704700BFFEE7000000B585B001
:1022300000BF1648806940F00800144988610846CC
:10224000806900F00800009000BF00BF00BF084692
:10225000806940F0400088610846806900F04000D5
:10226000009000BF00BF01200290202001900120BB
:1022700003900320049001A90548FEF7ABFB01225F
:1022800020210348FEF74EFD05B000BD00100240BE
:10229000000C014008B500BF0A48406940F0020048
:1022A000084948610846406900F00200009000BFFC
:1022B00000BF002211463B20FEF7C0FD3B20FEF789
:1022C000ADFD08BD0010024010B503490348FEF7FC
:1022D0002EF80349087010BD38000020700F030865
:1022E0003700002008B500BF1348806940F0100097
:1022F000114988610846806900F01000009000BF15
:1023000000BF00BF0846806940F0040088610846AD
:10231000806900F00400009000BF00BF00BF0846C5
:10232000806940F0200088610846806900F0200044
:10233000009000BF00BF08BD0010024007480849D8
:10234000086000204860002105488160C16001618B
:102350004FF4804141610421816170470080014058
:102360004C05002000BFFEE700BFFEE770470000FD
:1023700008B508490968C9084FF47A72B1FBF2F14F
:102380004143009100BF00BF00994A1E00920029FE
:10239000F9D108BD1000002010B5024600230868DE
:1023A000506248689062D1E9020420430C692043DE
:1023B0004C6920430343D06A20F0F7001843D062F1
:1023C000002010BD01460869C0B270470146086888
:1023D00000F003007047024602F114004318186829
:1023E00070470FB410B504460021DDE90302104325
:1023F000059A1043069A1043079A1043089A10430F
:102400000143606847F6FF62904308436060002024
:1024100010BC5DF814FB10B50446032020600220B8
:10242000FEF79EFA002010BD0146D1F880007047EB
:1024300010B50246002308689060D1E901042043EA
:10244000CC6820430C6920430343D0686FF30B0032
:102450001843D060002010BD02460868C2F8800012
:102460000020704770B586B005460C4601943720B1
:10247000029040200390002004904FF4806005906B
:1024800001A92846FFF7D4FF41F2883237212846B8
:1024900000F0DCF90646304606B070BD70B586B077
:1024A00005460C460B48204301902920029040200D
:1024B0000390002004904FF48060059001A9284605
:1024C000FFF7B6FF284600F0C9FA0646304606B0C8
:1024D00070BD00000000108070B586B005460C4647
:1024E00001941020029040200390002004904FF4AB
:1024F0008060059001A92846FFF79AFF41F28832D3
:102500001021284600F0A2F90646304606B070BDFC
:1025100070B586B005460C46019406200290402016
:102520000390002004904FF48060059001A9284694
:10253000FFF77EFF41F288320621284600F086F937
:102540000646304606B070BD30B585B00446002062
:1025500000900190029003904FF4806004906946CF
:102560002046FFF765FF204600F050F90546284653
:1025700005B030BD30B585B004464FF4D57000903D
:102580000820019040200290002003904FF48060CA
:10259000049069462046FFF74BFF204600F0E6FA1C
:1025A0000546284605B030BD70B586B005460C46D8
:1025B00001941220029040200390002004904FF4D8
:1025C0008060059001A92846FFF732FF41F288326A
:1025D0001221284600F03AF90646304606B070BD92
:1025E00070B586B005460C4601941120029040203B
:1025F0000390002004904FF48060059001A92846C4
:10260000FFF716FF41F288321121284600F01EF92B
:102610000646304606B070BDF0B585B00646144695
:102620001D46009407200190402002900020039056
:102630004FF48060049069463046FFF7F9FE41F29E
:1026400088320721304600F001F90746384605B0C8
:10265000F0BD30B585B00446002000900220019006
:10266000C0200290002003904FF4806004906946DF
:102670002046FFF7DDFE204600F0BEF9054628465D
:1026800005B030BD70B586B005460C4601940920F2
:102690000290C0200390002004904FF480600590C9
:1026A00001A92846FFF7C4FE284600F0A5F9064612
:1026B000304606B070BD30B585B0044600200090AD
:1026C0003320019040200290002003904FF480605E
:1026D000049069462046FFF7ABFE41F28832332171
:1026E000204600F0B3F80546284605B030BD70B569
:1026F00086B005460C4601940D20029040200390C0
:10270000002004904FF48060059001A92846FFF74F
:102710008FFE41F288320D21284600F097F80646D8
:10272000304606B070BD70B586B005460C46002038
:1027300001900320029040200390002004904FF469
:102740008060059001A92846FFF772FE224603210A
:10275000284600F0AFF90646304606B070BD0000CE
:1027600030B585B00446002000900C200190402038
:102770000290002003904FF4806004906946204648
:10278000FFF756FE044A0C21204600F05FF805468C
:10279000284605B030BD000000E1F50570B586B0F3
:1027A00005460C4601941920029040200390002019
:1027B00004904FF48060059001A92846FFF738FE89
:1027C00041F288321921284600F040F8064630468A
:1027D00006B070BD70B586B005460C460194182051
:1027E000029040200390002004904FF480600590F8
:1027F00001A92846FFF71CFE41F28832182128461D
:1028000000F024F80646304606B070BD01460E487A
:102810000068C0084FF47A73B0FBF3F041F28833DC
:1028200000FB03F200BF101EA2F1010202D14FF023
:1028300000407047486B00F080000028F3D0C520AE
:1028400088630020F5E70000100000202DE9F04328
:1028500005460F46904666480068C0084FF47A71F6
:10286000B0FBF1F000FB08F900BFB9F10000A9F1DD
:10287000010903D14FF00040BDE8F0836E6B06F014
:1028800045000028F1D006F400600028EDD1686B07
:1028900000F0040010B10420A863EDE7686B00F0BD
:1028A000010010B10120A863E6E7C520A86328460F
:1028B000FFF788FDB84201D00120DDE7002128465E
:1028C000FFF789FD04464B48204008B90020D3E7B4
:1028D00004F00040B0F1004F02D14FF00070CBE7A0
:1028E00004F08040B0F1804F01D14020C4E704F0F3
:1028F0000050B0F1005F01D18020BDE704F08050AE
:10290000B0F1805F02D14FF48070B5E704F0006051
:10291000B0F1006F02D14FF40070ADE704F08060B9
:10292000B0F1806F02D14FF48060A5E704F08070B1
:10293000B0F1807F02D14FF400609DE704F4000005
:10294000B0F5000F02D14FF4805095E704F48000F9
:10295000B0F5800F02D14FF400508DE704F4001061
:10296000B0F5001F02D14FF4804085E704F48010D9
:10297000B0F5801F02D14FF400407DE704F48020C1
:10298000B0F5802F02D14FF4003075E704F4003029
:10299000B0F5003F02D14FF480206DE704F48030A1
:1029A000B0F5803F02D14FF4002065E704F4004009
:1029B000B0F5004F02D14FF480105DE704F4804081
:1029C000B0F5804F02D14FF4001055E704F40050E9
:1029D000B0F5005F02D14FF480004DE704F008002D
:1029E000082801D1000547E74FF4803044E7000094
:1029F0001000002008E0FFFD10B5014616480068F1
:102A0000C0084FF47A74B0FBF4F041F2883400FB54
:102A100004F300BF181EA3F1010302D14FF00040E0
:102A200010BD4A6B02F045000028F3D002F40060AC
:102A30000028EFD1486B00F0040010B10420886337
:102A4000EEE7486B00F0010010B101208863E7E772
:102A5000C52088630020E3E71000002010B5014680
:102A600013480068C0084FF47A74B0FBF4F041F2E8
:102A7000883400FB04F300BF181EA3F1010302D148
:102A80004FF0004010BD4A6B02F045000028F3D023
:102A900002F400600028EFD1486B00F0040010B190
:102AA00004208863EEE7C52088630020EAE7000081
:102AB000100000202DE9F04304460F4690462A48B6
:102AC0000068C0084FF47A71B0FBF1F041F2883130
:102AD00000FB01F900BFB9F10000A9F1010903D120
:102AE0004FF00040BDE8F083666B06F0450000281B
:102AF000F1D006F400600028EDD1606B00F0040016
:102B000010B10420A063EDE7606B00F0010010B18C
:102B10000120A063E6E72046FFF754FCB84201D04D
:102B20000120DFE7C520A06300212046FFF753FC0A
:102B3000054605F4604020B9280CA8F800000020E4
:102B4000D0E705F48040B0F5804F02D14FF400503B
:102B5000C8E705F40040B0F5004F02D14FF48050B3
:102B6000C0E74FF48030BDE71000002010B50146EB
:102B700018480068C0084FF47A74B0FBF4F041F2D2
:102B8000883400FB04F300BF181EA3F1010302D137
:102B90004FF0004010BD4A6B02F045000028F3D012
:102BA00002F400600028EFD1486B00F0040010B17F
:102BB00004208863EEE7486B00F0010010B10120AB
:102BC0008863E7E7486B00F0400008B14020886365
:102BD0000020DFE7100000202DE9F04389B0044613
:102BE0000F46FEF7A5F881464FF00008002001903F
:102BF00002903E4608212068FFF76EFC05461DB195
:102C0000284609B0BDE8F0835022125B1104206809
:102C1000FFF728FC05460DB12846F2E74FF0FF30DC
:102C20000390082004903020059002200690002098
:102C300007900120089003A92068FFF7ADFB2068EA
:102C4000FFF739FD05460DB12846DAE715E02068A3
:102C5000406B00F4001038B12068FFF7E5FB01A9D4
:102C600041F8280008F10108FEF762F8A0EB09001E
:102C7000401C10B94FF00040C3E72068406B40F2A1
:102C80002A4108400028E2D02068406B00F008008C
:102C900018B1082021688863B3E72068406B00F012
:102CA000020018B1022021688863AAE72068406BFF
:102CB00000F0200018B1202021688863A1E740F2CD
:102CC0003A502168886302980006029901F47F4116
:102CD00040EA0120029901F47F0140EA11200299A3
:102CE00040EA11603060361D01980006019901F438
:102CF0007F4140EA0120019901F47F0140EA11205F
:102D0000019940EA1160306000207AE730B58FB059
:102D10000446012003902068FFF758FB18B94FF0D4
:102D200080600FB030BD606C03281BD02068FFF7B7
:102D300090FC05460DB12846F3E700212068FFF717
:102D40004AFB606704212068FFF745FBA067082164
:102D50002068FFF740FBE0670C212068FFF73BFB92
:102D600080210851606C032807D003A92068FFF771
:102D7000DAFC05460DB12846D3E7606C032820D065
:102D8000BDF80C1021655022125B11042068FFF77A
:102D900079FC05460DB12846C3E700212068FFF7FE
:102DA0001AFB606604212068FFF715FBA066082166
:102DB0002068FFF710FBE0660C212068FFF70BFB93
:102DC000206704212068FFF706FB010DE16404A9D8
:102DD0002046FEF741FC10B14FF08050A1E7502093
:102DE000005B01040A4600232068FFF715FC054636
:102DF0000DB1284695E7D4E90412A069CDE9001287
:102E0000029094E80F00FFF7ECFA002089E7000039
:102E1000F8B5044600200090002600272068FFF740
:102E200093FB05460DB12846F8BD2068FFF7A2FBCD
:102E3000054645B10021A1642068FFF785FB0546E2
:102E40001DB12846F0E70121A164A06C012808D13A
:102E500000212068FFF706FB054615B14FF08050B2
:102E6000E2E71DE000212068FFF7FCFA05460DB1FE
:102E70002846D9E718492068FFF710FB054615B129
:102E80004FF08050D0E700212068FFF7A4FA0646F3
:102E9000012080EAD67080F001070098401C009065
:102EA0004FF6FF710098884201D2002FDAD04FF61A
:102EB000FF710098884202D34FF08070B4E706F0AB
:102EC0008040B0F1804F02D10120606401E0002019
:102ED00060640020A8E70000000010C170B504463F
:102EE0000D4615B94FF0006070BD5022125B110401
:102EF0002068FFF7FCFB06460EB13046F4E70021E0
:102F00002068FFF768FA28600020EDE77CB50446EA
:102F100000200090019000212068FFF75CFA00F08B
:102F20000070B0F1007F02D14FF400607CBD6946B3
:102F30002046FFF751FE05460DB12846F6E70198F9
:102F400000F4803098B15022125B11042068FFF722
:102F500089FA05460DB12846E8E700212068FFF709
:102F6000D7FA05460DB12846E0E70020DEE74FF02E
:102F70008060DBE77CB504460020009001900021D2
:102F80002068FFF728FA00F00070B0F1007F02D14E
:102F90004FF400607CBD69462046FFF71DFE0546E4
:102FA0000DB12846F6E7019800F4802098B1502230
:102FB000125B11042068FFF755FA05460DB128464B
:102FC000E8E702212068FFF7A3FA05460DB128467D
:102FD000E0E70020DEE74FF08060DBE710B5044655
:102FE000012007490870FDF741F928B90448007825
:102FF00020F00100024908700148007810BD00006F
:1030000036000020F0B589B007460D46144601266B
:103010001548007800F0010010B1032009B0F0BDA0
:1030200035B1012D06D0022D0BD0032D17D10FE0A5
:10303000002616E001A8FDF703F907982060002696
:103040000FE001A8FDF7FCF808982080002608E0B2
:1030500001A8FDF7F5F808982060002601E0042695
:1030600000BF00BF3046D9E7360000202DE9F04709
:1030700081460C4615461E460127DFF830800C4B72
:10308000324629462046FDF70FF968B907E0B8F146
:103090000000A8F1010802D10120BDE8F087FDF78A
:1030A000D9F80028F3D100273846F6E7A0860100BA
:1030B00000E1F50510B50446012007490870FDF749
:1030C000C9F828B90448007820F0010002490870C6
:1030D0000148007810BD0000360000202DE9F047BF
:1030E00081460C4615461E460127DFF830800C4B02
:1030F000324629462046FDF7EFF868B907E0B8F1F7
:103100000000A8F1010802D10120BDE8F087FDF719
:10311000A1F80028F3D100273846F6E7A086010081
:1031200000E1F505704730B58FB005460024012059
:103130000590000406900020079002200C90C10327
:103140000D910E9505A8FEF701F804460CB100BFDD
:10315000FEE70F20009002200190002002904FF423
:10316000806003900020049002216846FDF7B8FEBD
:1031700004460CB100BFFEE70FB030BD10B5FDF73F
:10318000DDFD10BD1148006840F001000F490860E6
:10319000084640680E4908400C49486008460068E7
:1031A0000C490840094908600846006820F480205E
:1031B00008600846406820F4FE0048604FF41F0095
:1031C0008860C8030449086070470000001002408E
:1031D0000000FFF8FFFFF6FE08ED00E070B50546C1
:1031E0006C6A0020E085E0842046FEF75FFE70BD3B
:1031F0000168C96821F490710268D1600168496969
:1032000021F0010102685161202180F83A107047D5
:1032100010B504462068C06820F040002168C860EE
:10322000202084F839002046FEF7FCFF002010BD66
:1032300070B5044694F83A0022284AD1A068B0F547
:10324000805F13D1A56A206940B920684068C0F347
:1032500008002880A06A801CA06219E020684068ED
:10326000C0B22880A06A401CA06211E0206938B971
:1032700020684068C1B2A26A501CA062117007E0C9
:103280002068406800F07F01A26A501CA0621170A3
:10329000E08D401E80B2E085C8B92068C06820F08B
:1032A00020002168C8602068C06820F48070216810
:1032B000C8602068406920F0010021684861202032
:1032C00084F83A002046FEF769FF002070BD002018
:1032D000FCE70220FAE7000070B50446216809699E
:1032E00021F44051E2681143226811612269A1680A
:1032F0001143626941EA02052168C96841F20C6222
:10330000914329432268D1602168496921F44071C1
:10331000A269114322685161564A2168914254D1F1
:10332000FDF7BAFE00EBC00101EB001162689200EC
:10333000B1FBF2F100EBC00202EB001263689B00EC
:10334000B2FBF3F26423B2FBF3F202EBC20303EB32
:103350000212A1EB8201322202EB01116422B1FBC5
:10336000F2F101F0F00100EBC00202EB0012636821
:103370009B00B2FBF3F26423B2FBF3F201EB021207
:1033800000EBC00101EB001163689B00B1FBF3F19E
:1033900000EBC00303EB00136668B600B3FBF6F363
:1033A0006426B3FBF6F303EBC30606EB0313A1EBB2
:1033B0008301322303EB01116423B1FBF3F101F02C
:1033C0000F0111442268916053E0FDF755FE00EBB8
:1033D000C00101EB001162689200B1FBF2F100EB59
:1033E000C00202EB001263689B00B2FBF3F264239D
:1033F000B2FBF3F202EBC20303EB0212A1EB820178
:10340000322202EB01116422B1FBF2F101F0F00172
:1034100000EBC00202EB001263689B00B2FBF3F208
:103420006423B2FBF3F201EB021200EBC00101EBEB
:10343000001163689B00B1FBF3F100EBC00303EBE9
:1034400000136668B600B3FBF6F36426B3FBF6F32D
:1034500003EBC30606EB0313A1EB8301322303EB5B
:1034600001116423B1FBF3F101F00F011144226853
:10347000916070BD00380140014691F83900212863
:103480002CD18868B0F5805F0FD10A6A1088C0F32C
:1034900008000B685860086918B9086A801C08623F
:1034A00009E0086A401C086205E00B6A581C0862C3
:1034B00018780B685860C88C401E80B2C88458B910
:1034C0000868C06820F080000B68D8600868C06891
:1034D00040F040000B68D860002070470220FCE7F5
:1034E00010B500240C48FEF7EDFC00BF01E0641CA1
:1034F00000BF0948FEF7DBFC2028F8D100BF0024FC
:1035000001E0641C00BF012204490348FEF70EFEDF
:103510000028F6D100BF10BD0C0500202A000020B5
:1035200000BFFEE70FB4084B10B504A902AA039828
:1035300000F038F8044602A9002000F093F9204674
:1035400010BC5DF814FB00006538000802480068F4
:10355000C0F30220704700000CED00E010B5002819
:1035600004DB0A07130E054A135406E00A07140E7B
:10357000034A00F00F031B1FD45410BD00E400E009
:1035800018ED00E002E008C8121F08C1002AFAD1B5
:1035900070477047002001E001C1121F002AFBD1D3
:1035A000704700002DE9FF4F8DB09B460F46044643
:1035B000002606E025280BD05A460F999047641C38
:1035C000761C20780028F5D111B03046BDE8F08F88
:1035D0000025A8460122984900E0054314F8013F60
:1035E000203B02FA03F00842F7D120782E2817D1A9
:1035F00014F8010F45F004052A280ED06FF02F02B1
:103600002078A0F1300109290AD808EB880102EBE3
:10361000410100EB0108641CF2E757F8048B641CBD
:1036200020786C280DD004DC4C2812D06A2811D1E7
:1036300004E074280DD07A280CD10AE045F4001576
:1036400007E0617845F48015814202D1641C05F5DC
:103650008015641C2078692844D008DC0028B3D089
:10366000582867D063280FD0642808D13AE0702822
:1036700065D0732812D075285AD078285AD05A4667
:103680000F999047761CD5E017F8040B8DF80000D1
:1036900000208DF80100E946012003E057F8049B63
:1036A0004FF0FF3069074FF0000501D40AE06D1CB0
:1036B00045450DDA8542FADB19F805100029F6D1E7
:1036C00006E06D1C8542FCDB19F805100029F8D1D5
:1036D0002E4404E019F8010B5A460F9990476D1ECD
:1036E000F8D2A7E00A200021CDE90801C5F3025075
:1036F00002280CD001CFC117021E71F100020CDAB2
:103700000023D0EB030063EB01012D2208E0FF1D35
:1037100027F00707F7E80201EEE72A0504D52B2278
:103720008DF8282001223CE0EA073AD02022F7E772
:103730000A2000E010200021CDE9080107E0102058
:10374000002145F00405CDE908014FF00808C5F354
:103750000250022810D001CF00214FF0000A2A07A2
:1037600020D52278702A0DD0DDE908C38CF0100C2A
:103770005CEA030C0CD015E0FF1D27F00707F7E803
:103780000201EAE740228DF828204FF0010A0CE000
:1037900050EA010306D030238DF828308DF8292017
:1037A000022292462278582A04D024A20DF1200940
:1037B0000B9209E026A2F9E7DDE90823FCF7EDFC0E
:1037C0000B9B9B5C09F8013D50EA0102F4D1ADEB83
:1037D000090020300890680701D44FF001080899CB
:1037E000884503DD0898A8EB000000E00020804633
:1037F000002506E00AA85A46405D0F9990476D1CC7
:10380000761C5545F6DB04E030205A460F99904768
:10381000761CB8F10001A8F10108F5DC05E019F803
:10382000010B5A460F999047761C0899481E08903C
:103830000029F4DC641CC4E609280100303132336D
:1038400034353637383961626364656600000000DC
:1038500030313233343536373839414243444546C6
:10386000000000000A68531C0B60107070470000D5
:1038700070B504460D46002084F80402401EC4F8CA
:103880002C022946204602F08DFA08B1032070BDB3
:1038900094F8FE1140F2FF10005D41EA00204AF664
:1038A0005521884201D00220F1E73920005D010650
:1038B0003820005D41EA00413720005D41EA0020E8
:1038C00094F83610084320F07F400E49884201D119
:1038D0000020DCE75520005D01065420005D41EA30
:1038E00000415320005D41EA002094F85210084343
:1038F00020F07F400349884201D10020C7E7012022
:10390000C5E7000046415400024600E0521C107812
:1039100010B110788842F9D11078704730B502465E
:103920000B4600200446014624E001EB41001E4DF9
:1039300055F82000E0B101EB410055F82000D2F825
:103940000052A84215D101EB4100174D05EB800054
:103950004068D2F80852A8420BD101EB4100124D49
:1039600005EB80000089B2F80652A84201D103E0BD
:103970000124491C0229D8D300BF022906D10CB961
:10398000022B01D1002030BD1220FCE743B901EB2E
:103990004100054D05EB80004089B0F5807F01D1E5
:1039A0001020F0E70020EEE71406002010B50146D5
:1039B00000200DE000EB4002074B53F822208A4222
:1039C00005D1002200EB4003034C44F82320401CA7
:1039D0000228EFD310BD00001406002070B5034686
:1039E0000D46D3F82402021D680AD3F8006296F847
:1039F0000262B0FBF6F400BF02CA09B9002070BD34
:103A00008C4200D202E0641A121DF5E700BF106874
:103A10002044F4E70246891ED2F81402801E884230
:103A200001D80020704792F80232D2F8280201FB38
:103A30000300F7E72DE9F04705460C46207820F013
:103A40004000401E00EB800101EBC00600274FF054
:103A5000010800BF1A48C05D205C1949C95D2144B6
:103A6000497840EA0129B8F1000F10D0484601F02A
:103A700055FC8046FF2E07D23146761C35F81100E2
:103A800001F04CFC404508D00020BDE8F0874FF61F
:103A9000FF70814501D00020F7E7781C07460D280C
:103AA000D8D3207800F0400038B1B8F1000F04D02E
:103AB00035F8160008B10020E7E70120E5E700002F
:103AC0006E6200082DE9F04704468946B9F1000FFF
:103AD00008D1D4F80C721FB1D4F81402B84216D829
:103AE000012714E04946204601F03EFF0646022E1B
:103AF00002D20120BDE8F087701C08B93046F9E712
:103B0000D4F81402B04201D93046F3E74F463D469F
:103B100000BF6D1CD4F81402A84204D80225BD428F
:103B200001D90020E6E72946204601F01DFF0646A0
:103B300006B909E0701C08B1012E01D13046D9E761
:103B4000BD42E6D10020D5E700BF6FF070422946A4
:103B5000204602F043F98046B8F1000F08D1B9F1D0
:103B6000000F05D02A464946204602F037F9804624
:103B7000B8F1000F11D1C4F80C52D4F81002401C57
:103B800098B1D4F81002401EC4F8100294F805024F
:103B900040F0010084F8050207E0B8F1010F02D1FE
:103BA0004FF0FF3000E0012005462846A2E7000064
:103BB0002DE9F34F83B0814604980068019002E03C
:103BC0000198401C0190019800782F28F8D00198A6
:103BD00000785C28F4D0D9F820A200252F4600BF39
:103BE00038467F1C01990C5C202C03DB2F2C01D064
:103BF0005C2C00D132E0FF2D03D3062005B0BDE8D8
:103C0000F08FE4B2812C13DBE0B2FE2810DC3846E2
:103C10007F1C01990E5C06EB042084B2402E01DB70
:103C20007E2E05DD802E01DBFE2E01DD0620E5E780
:103C30000121204601F028FB04460CB90620DDE7EF
:103C4000802C06DA214671A0FFF75EFE08B106203F
:103C5000D4E728466D1C2AF81040C1E700BF019840
:103C6000C11904980160202C01DA042000E0002032
:103C7000804608E0681E3AF81040202C02D02E2C16
:103C800000D002E06D1E002DF4D100BF0DB906205A
:103C9000B4E700202AF815000B222021D9F81802D9
:103CA00002F076F8002700E07F1C3AF81700202881
:103CB000FAD03AF817002E28F6D00FB148F00308D2
:103CC00000E06D1E25B1681E3AF810002E28F8D1CC
:103CD0000020064602904FF0080B00BF38467F1CBC
:103CE0003AF8104004B963E0202C03D02E2C04D104
:103CF000AF4202D048F00308F0E70298584501D2DD
:103D0000AF4214D1BBF10B0F02D148F003084FE0D2
:103D1000AF4201D048F00308AF4200D948E02F4637
:103D2000082002904FF00B0BB006060ED6E7802C51
:103D300009DB204601F0F2FA0021009001F0A4FA1C
:103D4000044648F00208FF2C11DDABF10100029996
:103D5000884204D848F00308CDF808B0BEE7221224
:103D6000D9F818320298411C02911A5419E024B172
:103D7000214629A0FFF7C8FD18B15F2448F00308C9
:103D80000FE0412C04DB5A2C02DC46F0020608E06E
:103D9000612C06DB7A2C04DC46F00106A4F120003D
:103DA00084B2D9F818320298411C02911C5495E74C
:103DB00000BFD9F818020078E52803D10520D9F80A
:103DC00018120870BBF1080F01D1B006060E06F0FC
:103DD0000C000C2803D006F00300032801D148F0A2
:103DE000020808F0020058B906F00300012801D1CA
:103DF00048F0100806F00C00042801D148F008082B
:103E0000D9F8180280F80B800020F7E6222A3A3C05
:103E10003E3F7C7F000000002B2C3B3D5B5D0000A3
:103E200030B50246531E1A46022B1BD202EB420348
:103E30000D4C04EB83035989B1F5807F00D100213B
:103E400009B14B1E99B202EB4203074C04EB83030A
:103E5000598129B9002302EB4204034D45F824306F
:103E6000002000E0022030BD1406002010B50446FA
:103E70000420FDF7EDFF0148046010BD2000002084
:103E800030B50446002504E04FF47A7000F004F8E1
:103E90006D1CA542F8D330BD70B5034600224FF02B
:103EA000E02675690D4E366803FB06F44FF0E026F8
:103EB000B16910E04FF0E026B06988420BD088422B
:103EC00002D20E1A324402E02E1A0E443244014647
:103ED000A24200D300E0EDE700BF70BD200000204B
:103EE0002DE9F04104460E460021204600F0FDF980
:103EF00005460DBB002700BFD4F81012D4F800020D
:103F000001F050FF054605B115E0D4F81402007821
:103F1000E52803D0D4F81402007820B9781C0746AD
:103F2000B04201D107E000270121204600F08BF8C4
:103F30000546002DE0D000BF042D00D107252846FE
:103F4000BDE8F0812DE9F04704460021204600F04D
:103F5000CCF9074617B13846BDE8F0874FF0FF09A6
:103F6000CA464FF6FF70A4F8240200BFD4F810121E
:103F7000D4F8000201F016FF074607B160E0D4F85C
:103F800014522E780EB904275AE0E87A00F03F0860
:103F9000E52E05D008F0080048B1B8F10F0F06D0A3
:103FA0004FF0FF094FF6FF70A4F8240241E0B8F18A
:103FB0000F0F20D1D4F82002A0B306F0400040B18A
:103FC00095F80DA026F04006B146B4F80602A4F814
:103FD00024024E450BD1687B504508D12946D4F8C0
:103FE0002002FFF727FD10B1A9F1010000E0FF203A
:103FF00000F0FF091DE0B9F1000F05D1284601F0DE
:10400000D5FF504500D11BE0D4F81802C07A00F06B
:10401000010040B90B222846D4F8181201F098FE8E
:1040200008B90DE005E04FF0FF094FF6FF70A4F866
:1040300024020021204600F006F80746002F95D004
:1040400000BF384688E72DE9F04104468846B4F8B9
:104050000602461CB0B210B1D4F8100210B9042008
:10406000BDE8F08106F00F0000287ED1D4F81002E0
:10407000401CC4F81002D4F80C0238B9D4F800027D
:10408000B0F80802B0427FD80420E9E7D4F8000273
:1040900090F80202401E00EA1610002874D1D4F8ED
:1040A0000C12D4F8000201F05FFC0546012D01D886
:1040B0000220D5E7681C08B90120D1E7D4F8000236
:1040C000D0F81402A84256D8B8F1000F01D104204C
:1040D000C6E7D4F80C12D4F80002FFF7F3FC05464B
:1040E0000DB90720BCE7012D01D10220B8E7681CFB
:1040F00008B90120B4E7D4F8000202F03FF808B193
:104100000120ADE74FF400720021D4F8000201F065
:104110003FFE2946D4F80002FFF77CFCD4F80012D9
:10412000C1F82C02002715E00120D4F8001281F814
:104130000402D4F8000202F021F808B101208FE750
:10414000D4F80002D0F82C02401CD4F80012C1F8B8
:104150002C027F1CD4F8000290F80202B842E3D887
:10416000D4F80002D0F82C0200E00DE0C01BD4F817
:104170000012C1F82C02C4F80C522946D4F80002EF
:10418000FFF748FCC4F81002A4F8066206F00F001E
:10419000D4F8001201EB4010C4F8140200205FE7CD
:1041A0002DE9FE4F0446D4F81882D4F820920C2250
:1041B0004146684601F0DFFD00BF9DF80B0000F0AE
:1041C000010028B3002088F80B00C4F82002012663
:1041D0000CE033464A466946404601F05FFB204604
:1041E000FFF7B0FE054605B102E0761C642EF0D361
:1041F00000BF642E02D10720BDE8FE8F042D01D040
:104200002846F9E79DF80B0088F80B00C4F82092C7
:104210009DF80B0000F0020060B1002600E0761C63
:1042200039F816000028FAD106F119000D21B0FB6B
:10423000F1F700E0012739462046FFF751FE054619
:1042400085BB781E071E2DD0B4F80602C11B204680
:1042500000F04BF805462DBBD4F8180201F0A6FE7D
:10426000824600BFD4F81012D4F8000201F09AFD83
:10427000054605B115E0FAB25346D4F81412D4F845
:10428000200201F055FA0120D4F8001281F804024E
:1042900000212046FFF7D7FE054615B9781E071EF8
:1042A000E0D100BFFDB9D4F81012D4F8000201F03B
:1042B00079FD0546BDB904F500742022002160692E
:1042C00001F066FD0B22D4E9050101F054FDA0695F
:1042D000C07A00F018006169087301202168A4F514
:1042E000007481F80402284686E72DE9F04104466F
:1042F0000E46A4F80662D4F80852012D05D0D4F871
:104300000002D0F81402A84202D80220BDE8F081D1
:104310004DB9D4F8000290F80002032803D1D4F874
:104320000002D0F8245265B9D4F80002B0F80802AF
:10433000B04201D80220E9E7D4F80002D0F8247294
:1043400024E0D4F8000290F802024FEA001815E0C9
:104350002946D4F8000201F007FB0546681C08B99D
:104360000120D3E7022D05D3D4F80002D0F81402BF
:10437000A84201D80220C9E7A6EB08064645E7D2C5
:104380002946D4F80002FFF745FB0746C4F80C5253
:104390000FB90220BAE707EB1610C4F8100206F0B6
:1043A0000F00D4F8001201EB4010C4F814020020F2
:1043B000ACE7000070B5044600250848005D58B918
:1043C00001200649085501F10802105D0A1D52F846
:1043D0002420116888470546284670BD2C06002019
:1043E0002DE9F04104460D4616460649085D091FB1
:1043F00051F8241032460B6929469847074638463B
:10440000BDE8F081340600202DE9F04104460D4658
:1044100016461F460749085D091F51F824103B4600
:104420003246D1F808C02946E04780464046BDE8FC
:10443000F08100003406002070B50446044A105D87
:10444000121F52F82420516888470546284670BD3F
:10445000340600202DE9F04104460D4616461F465D
:104460000749085D091F51F824103B463246D1F830
:104470000CC02946E04780464046BDE8F081000078
:1044800034060020002100E0491C022906D201EB7D
:104490004100054A52F820000028F5D1022901D038
:1044A000012070470020FCE71406002070B5054687
:1044B000284600F058FD04466CB9284601F0AAFED3
:1044C000044644B9D5F82802FFF7AAFC044614B9FB
:1044D0000020C5F80002204670BD00002DE9F74F0E
:1044E00090B091461198012803DD132013B0BDE868
:1044F000F08F10A801F0B1FA0F900F98002801DAA0
:104500000B20F3E7FA490F9851F820600EB90C2000
:10451000ECE7002086F800020F98C0B20C90002053
:104520000B900C98FFF746FF0190019800F00100F6
:1045300008B10320DAE7019800F0040008B10A206E
:10454000D4E700BF04AA01210C98FFF749FF10B976
:104550000498802801D20120C8E7119808B10020F2
:1045600000E03F2082460498A0EB0A000490A9F1E5
:10457000010000EA090008B14FF00009B9F1000F8D
:1045800013D14FF4FA610498B0FBF1F00A904FF0A8
:10459000000B01E00BF1010BD64830F81B100A9814
:1045A0008142F7D8D44830F81B90B9F5007F01D389
:1045B0004FEA5929B9F1000F01D14FF00109B9F1C2
:1045C000800F01D94FF080090498B0FBF9F801255C
:1045D00040F6F670804500D302254FF6F670804510
:1045E00000D30325032D0AD1082000EB880000F238
:1045F000FF10470A202003900020029012E0012DB6
:1046000005D108EB4800401C4008C01C02E04FEAFE
:104610004800001D074607F2FF10470A01200390DB
:104620002020029003985044079007983844069041
:10463000029906980844059005984844A0EB0A00A2
:104640000499884201D90E2050E709AA03210C9849
:10465000FFF7C6FE28B9099818B10998B0F5004FC0
:1046600001D901200990099905980844401E491E66
:104670008843099009990598081A0990032D08D1D3
:1046800009990398084403900999079808440790EA
:1046900001E009980744DDE90301081AC11B0298EB
:1046A000081AB0FBF9F8022D03D140F6F6708045E8
:1046B00005D3032D05D14FF6F670804501D20E20AB
:1046C00014E7032D02D10C200D9010E0012D06D12E
:1046D0000498B0F5803F02D201200D9007E00498C5
:1046E000B0F5803F01D2042000E006200D9000BF0D
:1046F000119810B1F0200E9043E04FF400720021A9
:10470000304601F045FB06F5DF7401206070A070B3
:104710000020E0700D982071FE20607104985044D4
:104720003F21B0FBF1F0FF21B0FBF1F009903F21F8
:10473000099841EA9000A0710998E0713F20207229
:1047400000216172A172E172049820730498010A39
:1047500061730498010CA1730498010EE173552054
:1047600086F8FE01AA2140F2FF10815501230022A4
:1047700031460C98FFF76EFE08B10120B6E6F8202E
:104780000E9034464FF400720021204601F000FBE9
:104790000B225AA1204601F0EEFA4FF4007B84F878
:1047A0000BB04FEA1B21217384F80D900398A0737E
:1047B0000398010AE17301202074032D01D1002028
:1047C00001E04FF40070834684F811B04FEA1B21DA
:1047D000A1740498B0F5803F05D20498E074049861
:1047E000010A217510E0049884F820000498C0F3B1
:1047F0000721212001550498C0F3074122200155CB
:104800000498010E232001550E9860753F202076F4
:1048100000216176FF20A076E17684F81CA04FEAA3
:104820001A2161774FEA1A41A1774FEA1A61E177BD
:1048300001F011F90990032D3ED1099884F8430045
:104840000998C0F30721442001550998C0F3074196
:10485000452001550998010E4620015584F8247021
:10486000C7F3072125200155C7F30741262001552D
:10487000390E27200155022084F82C0000212D201C
:1048800001552E2001552F200155012084F83000BC
:1048900031200155062084F8320033200155802054
:1048A00084F84000292084F84200132216A104F164
:1048B000470001F060FA36E0099884F8270009986B
:1048C000C0F30721282001550998C0F3074129208A
:1048D00001550998010E2A200155A775390AE1757D
:1048E000802084F82400292084F82600132215E073
:1048F000300000207C62000892620008EBFE904DC0
:1049000053444F53352E30004E4F204E414D4520DD
:104910002020204641543332202020007AA104F187
:104920002B0001F028FA552084F8FE01AA2140F25C
:10493000FF1001550123524621460C98FFF78AFDCE
:1049400008B10120D2E5032D06D101230AF10602A8
:1049500021460C98FFF77EFD079808904FF0000B5A
:1049600061E04FF400720021204601F011FA0E9828
:104970000990032D14D0012D01D1684801E06FF09A
:10498000FF00099908430990099820700998000AC6
:1049900060700998000CA0700998000EE07019E092
:1049A000099860F0FF000990099820700998000AA2
:1049B00060700998000CA0700998000EE070FF204C
:1049C0002071FF216171A171E17120726172A17288
:1049D0000F21E1720898411C0246012308912146EB
:1049E0000C98FFF737FD08B101207FE54FF4007206
:1049F0000021204601F0CCF9012009900EE0089832
:104A0000411C02460123089121460C98FFF722FD24
:104A100008B101206AE50998401C09900998B8423C
:104A2000EDD30BF1010BBBF1000F9AD0032D01D197
:104A3000484600E00298834600BF0898411C0246A1
:104A40000123089121460C98FFF704FD08B10120CD
:104A50004CE5ABF10100B0F1000BEED1032D49D1D3
:104A60005220207060706120A0704120E0707220A0
:104A700084F8E401722140F2E51001554121401C07
:104A800001556121401C0155A8F1010084F8E8019D
:104A9000C0F3072140F2E9100155A8F10100C0F36D
:104AA00007414FF4F5700155A8F10100010E40F2E5
:104AB000EB100155022084F8EC01002140F2ED10CA
:104AC0000155401C0155401C0155552084F8FE013C
:104AD000AA2140F2FF10015501230AF101022146EB
:104AE0000C98FFF7B7FC01230AF1070221460C9846
:104AF000FFF7B0FC002211460C98FFF771FC08B1DB
:104B00000120F3E40020F1E44E4F204E414D4520BA
:104B100020202046415420202020200000FFFF00BC
:104B2000F7B582B016460398019001A800F095FFF2
:104B30000546002D02DA0B2005B0F0BD104850F8F4
:104B400025402CB12046FEF731FF002084F80002FA
:104B5000029818B10020029981F8000208490298D1
:104B600041F82500029808B1012E01D00020E3E7AA
:104B7000002203A902A800F0EDFB07463846DBE758
:104B8000300000202DE9F747ADF50D7D05461646AE
:104B900025B909200DF5107DBDE8F0870020C5F886
:104BA000000206F01F0626F001028EA983A800F07D
:104BB000D1FB0746002F7CD14FF4007000F0A2FB20
:104BC0008146B9F1000F01D11120E3E7CDF82C9215
:104BD000CDF824D203A88E9900F0EAFD0746889C00
:104BE0006FB90CB906270AE026F0010008B10120D0
:104BF00000E00020014603A8FEF790FE074606F0FD
:104C00001C0000285AD077B1042F08D1FFF73AFCD6
:104C100018B103A8FFF7C4FA00E01220074646F0D7
:104C20000806889C09E0E07A00F0110008B1072727
:104C300003E006F0040000B10827002F4DD106F074
:104C40000800002849D000F006FF804684F80E8056
:104C50004FEA1821E1734FEA184121744FEA1861B5
:104C600061740020E072207700216177A177E177FD
:104C70002146839800F08AFF82460021204601F0F9
:104C80008DF90120839981F80402BAF1000F24D034
:104C90008398D0F82C825146839801F042F9074658
:104CA000DFB9AAF101008399C1F80C02414683984B
:104CB00000E054E001F076F807460EE06FB9E07AC4
:104CC00000F0100008B1042707E006F0020020B150
:104CD000E07A00F0010000B10727DFB906F0080014
:104CE00008B146F020068398D0F82C02C5F81C02C3
:104CF000C5F8204226F0010008B1012000E00020A4
:104D0000014603A800F0CEFEC5F82802D5F8280217
:104D100000B90227484600F0FBFA07BB05F500750D
:104D2000AE710020E8712146839800F02FFF2861C2
:104D3000E07F0106A07F41EA0041607F41EA002058
:104D4000217F0843E8600020A860A861686283981A
:104D500028602868B0F80602A880A5F500753846D6
:104D600018E72DE9FF4F83B0044615469A46DDF853
:104D700010B00020CAF80000204601F04BFA029063
:104D8000029818B1029807B0BDE8F08F94F80702B6
:104D900010B194F80702F6E794F8060200F001005B
:104DA00008B90720EFE7D4F80812D4F80C02401A2B
:104DB00000900098854200D9009DCFE0B4F8080229
:104DC000C0F3080000287BD1D4F8000290F802025A
:104DD000401ED4F8081200EA512000F0FF09B9F192
:104DE000000F28D1D4F8080218B9D4F810020190A5
:104DF00010E0D4F8240230B12046D4F80812FEF7AF
:104E0000EDFD019006E0D4F81412D4F8000200F091
:104E1000ABFD01900198022803D2022084F807021A
:104E2000B1E70198401C18B9012084F80702AAE7ED
:104E30000198C4F81402D4F81412D4F80002FEF752
:104E4000E9FD06461EB9022084F807029BE74E449E
:104E50004FEA5528B8F1000F33D009EB0800D4F819
:104E6000001291F80212884205D9D4F8000290F895
:104E70000202A0EB0908D4F8001291F8010243469F
:104E800032465946FFF7C0FA18B1012084F80702EC
:104E900079E794F8060200F0400070B1D4F81802E7
:104EA000801B404509D2D4F81812891B0BEB412016
:104EB0004FF40072214600F05EFF4FEA482741E0C0
:104EC0002DE0D4F81802B04227D094F8060200F082
:104ED0004000A0B1D4F8001291F80102012321464C
:104EE000D4F81822FFF7B6FA18B1012084F80702A7
:104EF00049E794F8060220F0400084F80602D4F84E
:104F0000001291F80102012332462146FFF77CFA94
:104F100018B1012084F8070235E7C4F81862B4F824
:104F20000802C0F30800C0F50077AF4200D92F4651
:104F3000B4F80802C0F3080001193A46584600F0D8
:104F40001AFF00BFBB44D4F808023844C4F8080272
:104F5000DAF800003844CAF80000ED1B002D7FF499
:104F60002DAF00200FE72DE9F0410446204601F067
:104F700051F90746002F59D194F8060200F020009D
:104F8000002853D094F8060200F0400098B1D4F8FD
:104F9000001291F8010201232146D4F81822FFF7EC
:104FA00059FA10B10120BDE8F08194F8060220F012
:104FB000400084F80602D4F81C12D4F8000200F075
:104FC000F1FE0746002F31D104F50074256AE87A16
:104FD00040F02000E872207B2877A089010A6977D9
:104FE000E068010CA977E068010EE977284621699D
:104FF00000F0D4FF00F02FFD0646AE75310AE975CA
:10500000310C2976310E69760020A8740021E974EC
:10501000A07920F02000A0710120216881F804020D
:105020002068A4F5007401F02FF807463846BAE767
:105030002DE9FF4F83B0044615469B460498019026
:105040000020CBF80000204601F0E4F8029002981E
:1050500018B1029807B0BDE8F08F94F8070210B1BC
:1050600094F80702F6E794F8060200F0020008B987
:105070000720EFE7D4F808022844D4F80812884241
:1050800000D20025EAE0B4F80802C0F308000028C6
:105090007DD1D4F8000290F80202401ED4F8081224
:1050A00000EA512000F0FF0ABAF1000F32D1D4F823
:1050B000080248B9D4F81072BFB90021D4F8000230
:1050C000FEF700FD074610E0D4F8240230B1204678
:1050D000D4F80812FEF782FC074606E0D4F8141252
:1050E000D4F80002FEF7EEFC074607B9B9E0012F3D
:1050F00003D1022084F80702ACE7781C18B901201C
:1051000084F80702A6E7C4F81472D4F8100208B9AC
:10511000C4F8107294F8060200F04000A0B1D4F870
:10512000001291F8010201232146D4F81822FFF75A
:1051300091F918B1012084F807028BE794F8060270
:1051400020F0400084F80602D4F81412D4F80002CB
:10515000FEF760FC06461EB9022084F8070279E7D4
:1051600056444FEA5529B9F1000F36D00AEB090031
:10517000D4F8001291F80212884205D9D4F800023E
:1051800090F80202A0EB0A09D4F8001200E03DE01A
:1051900091F801024B4632460199FFF75BF918B1CD
:1051A000012084F8070255E7D4F81802801B48450F
:1051B00010D2D4F81802801B019A02EB40214FF460
:1051C0000072204600F0D7FD94F8060220F040005F
:1051D00084F806024FEA492831E0D4F81802B042B8
:1051E00012D004F5027003C888420DD2D4F8001220
:1051F00091F80102012332462146FFF705F918B163
:10520000012084F8070225E7C4F81862B4F8080200
:10521000C0F30800C0F50078A84500D9A846B4F846
:105220000812C1F3080108194246019900F0A3FDD4
:1052300094F8060240F0400084F8060200BF01988E
:1052400040440190D4F808024044C4F80802DBF856
:1052500000004044CBF80000A5EB0805002D7FF4CA
:1052600012AF00BF04F5027003C8884203D9D4F816
:105270000802C4F80C0294F8060240F0200084F8FA
:1052800006020020E6E600002DE9F04102460F4646
:10529000802A01DA10462FE01FB1184B45F2205644
:1052A00002E0174B45F220560025102416E0A6EB2D
:1052B000050C0CEBDC7805EB68014FEA410C33F888
:1052C0001CC0944500D10BE04FEA410C33F81CC0E0
:1052D000944501DA0D4600E00E46641E002CE6D12E
:1052E00000BF34B14FF0010C0CEB410C33F81CC083
:1052F00001E04FF0000C6046BDE8F0812CB70108DA
:10530000A862000810B50446204600F0EBFC10BD72
:1053100010B50446204600F099FA10BD024600215F
:1053200000E0491C094830F8110020B1074830F866
:1053300011009042F5D1054830F8110018B1044829
:1053400030F8110070471046FCE70000B00B03086E
:10535000900D03082DE9F74F8AB000210A980160EB
:105360000B9800F07AFB09900998002803DA0B20CB
:105370000DB0BDE8F08FEA49099851F820400CB90A
:105380000C20F5E70A98046094F8000280B194F8C4
:105390000102FFF751F8814609F0010040B90C986D
:1053A00020B109F0040008B10A20E1E70020DFE79E
:1053B000002084F80002099884F8010294F80102A0
:1053C000FEF7F8FF814609F0010008B10320CFE79E
:1053D0000C9820B109F0040008B10A20C8E70027A2
:1053E00039462046FEF744FA0546012D01D09DBB03
:1053F00032E000261AE004F5DF7000EB061898F89A
:10540000040070B198F80B00010698F80A0041EA10
:10541000004198F8090041EA002098F80810084374
:1054200000E0002002A941F82600761C042EE2D3F9
:10543000002606B1761E00BF02A850F8267027B1DC
:1054400039462046FEF714FA00E0022005461DB159
:10545000701C06460428EFD3032D01D1012087E7F5
:105460000DB10D2084E7E17A207B41EA0020B0F500
:10547000007F01D00D207BE7A17DE07D41EA002A7D
:10548000BAF1000F0ED12720005D01062620005D35
:1054900041EA00412520005D41EA002094F82410F3
:1054A00040EA010AC4F818A2207C84F8030294F8A8
:1054B0000302012805D094F80302022801D00D2030
:1054C00056E794F803020AFB00FA607B84F80202B4
:1054D00094F8020220B194F80202411E084008B17B
:1054E0000D2045E7617CA07C41EA0020A4F8080279
:1054F00094F8080200F00F0008B10D2038E7E17CB5
:10550000207D41EA00200890089870B92320005DB2
:1055100001062220005D41EA00412120005D41EAB0
:10552000002094F8201008430890A17BE07B41EA1A
:1055300000200190019808B90D2019E70198504406
:10554000B4F8081200EB11100790DDE90701814261
:1055500001D20D200CE7DDE90710401A94F8021281
:10556000B0FBF1FBBBF1000F01D10D2000E70125DD
:1055700040F6F670834500D302254FF6F67083455A
:1055800000D303250BF10200C4F81402C4F81C7206
:1055900001983844C4F8200207983844C4F8280217
:1055A000032D19D1B4F8080208B10D20E0E62F2030
:1055B000005D01062E20005D41EA00412D20005DC6
:1055C00041EA002094F82C100843C4F82402D4F8CF
:1055D0001402800006901AE0B4F8080208B90D2001
:1055E000C6E6D4F820025044C4F82402022D03D1A8
:1055F000D4F81402400009E094F8140200F001000D
:10560000D4F8141201EB410100EB51000690D4F8DC
:105610001812069800F2FF10B1EB502F01D20D20A6
:10562000A6E64FF0FF30C4F81002C4F80C02802048
:1056300084F80502032D63D194F830103120005D09
:1056400041EA002001285BD1791C204600F0AAFB2A
:10565000E8BB002084F8050294F8FE1140F2FF1028
:10566000005D41EA00204AF65521884248D1E078A1
:105670000006A17840EA0140617840EA01202178E3
:105680000843284988423BD140F2E710005D0106FB
:105690004FF4F370005D41EA004140F2E510005D17
:1056A00041EA002094F8E41108431F49884227D1B9
:1056B00040F2EB10005D01064FF4F570005D41EA29
:1056C000004140F2E910005D41EA002000E017E0EF
:1056D00094F8E8110843C4F8100240F2EF10005D9E
:1056E00001064FF4F770005D41EA004140F2ED1011
:1056F000005D41EA002094F8EC110843C4F80C0264
:1057000084F8005209480088401C80B2074908808C
:10571000A4F806022046FEF749F9002028E600001A
:105720003000002052526141727241613400002009
:10573000F0B504461D464D730F27CF7200270F7337
:105740008F76BC4681F81BC0571E07EB870C0CEB0D
:10575000C706002738463B4600BF4FF6FF77B842E2
:1057600003D03746761C34F81700DFF840C01CF829
:1057700003C001F80C000712DFF830C01CF803C0AA
:105780008C448CF8017008B94FF6FF705F1C3B46E3
:105790000D2FE2D34FF6FF77B84202D034F81670DF
:1057A0000FB942F040020A70F0BD00006E620008BE
:1057B0002DE9F3410446019800782F2803D0019881
:1057C00000785C2802D10198401C01900020C4F8A8
:1057D000080201980078202808D200212046FEF710
:1057E00084FD05460020C4F814022CE000BF01A986
:1057F0002046FEF7DDF9054605B123E02046FEF719
:10580000A1FB0546D4F81802C67A3DB1042D04D197
:1058100000BF06F0040000B9052513E006F00400FF
:1058200000B10FE0D4F81472F87A00F0100008B953
:10583000052507E03946D4F8000200F0A7F9C4F8BE
:105840000802D4E700BF2846BDE8FC8110B5002857
:1058500021D0114B0022001F196803E0814203D8B8
:105860000A4649680029F9D152B11368841A9C424A
:1058700004D1006818441060104602E0506000E057
:10588000186039B102680B1A934203D10B681A44AD
:1058900002604968416010BD3C0000202DE9FF4FC7
:1058A00083B0074691461E460B223846049900F005
:1058B00062FA052E19D9B04612E039F802BB00256C
:1058C0000CE0584668F35F0080464FEA6B0B08F423
:1058D000803010B1234888EA00086D1C102DF0D3E9
:1058E000B9F800000028E8D14646072500BF06F0B9
:1058F0000F0000F1300ABAF1390F03DD0AF1070099
:1059000000F0FF0A28466D1E01A901F800A0360923
:10591000002EECD17E20485500240BE0385D812814
:1059200007DB385DFE2804DC681EA04200D106E0DB
:10593000641C641CAC4202D2385D2028EED100BF4A
:1059400000BF082D04D228466D1C01A9095C00E0A7
:1059500020212046641C3954082CF2D307B0BDE83E
:10596000F08F0000211001002DE9F04705460C469C
:10597000022C03D3D5F81402A04202D84FF001093B
:1059800066E04FF0FF3995F80002012804D00228A4
:105990002CD0032858D13CE0274607EB5707D5F811
:1059A000200200EB5721284600F0FCF900B14EE040
:1059B00038467F1CC0F3080015F80080D5F8200297
:1059C00000EB5721284600F0EDF900B13FE0C7F3A6
:1059D0000800285C48EA002804F0010010B14FEAF2
:1059E000181001E0C8F30B00814630E0D5F8200222
:1059F00000EB1421284600F0D5F900B127E040F271
:105A0000FF1000EA440046193078717840EA012915
:105A10001DE0D5F8200200EBD411284600F0C2F9B1
:105A200000B114E040F2FF1000EA84004619F0785B
:105A30000006B17840EA0140717840EA01203178EF
:105A4000084320F0704902E04FF0010900BF00BF99
:105A50004846BDE8F0870020704770B502464FF019
:105A6000FF301568DDB1116800E0491C0D78202D6C
:105A700002D30D783A2DF8D10D783A2D0ED1146855
:105A800014F8015BA5F130030A2B06D28C4204D135
:105A90001BB918464D1C2946156070BD002000BF7B
:105AA000FBE7000030B502460B4600211EE001EB8B
:105AB0004100354C54F82000D2F80042A04214D1E5
:105AC00001EB4100304C04EB80004068D2F8084202
:105AD000A0420AD101EB41002B4C04EB800000896D
